:100000000C94F3000C941B010C941B010C941B0129
:100010000C941B010C941B010C941B010C941B01F0
:100020000C941B010C941B010C941B010C941B01E0
:100030000C941B010C941B010C941B010C941B01D0
:100040000C94E5050C941B010C941B010C941B01F2
:100050000C941B010C941B010C941B010C941B01B0
:100060000C941B010C941B010000000025002800CB
:100070002B000000000023002600290000000008DB
:10008000000201000003040700000000000000005F
:1000900000000000240027002A00010204081020AC
:1000A000408001020408102001020408102004040A
:1000B0000404040404040202020202020303030310
:1000C00003030406205F00000003A000C00C00F939
:1000D0004F806BEB00988C8052A58003000001C814
:1000E0008089C00050850021C200084000208200A5
:1000F000002000188C00FA2F804BE0805A66808A1E
:10010000A500E08F80EAAB0072A9009A8C00FAAFDC
:10011000804AA70001400009400021488051450065
:1001200089420042660072A6807A8780FAA5007232
:100130002500FA2700FAA880FA8800722B00F88FB1
:10014000808BE8808BE800F88D80F82080F90F80A4
:10015000F9CF80722700FA8400722740FA85804A1E
:10016000A90083E800F02F00E06E00F0EF00D88DCA
:1001700080C0EC009AAC8003E880C081808BE000F6
:10018000420400082080020400312380F92300315A
:100190002480312F8031628023EA00255380F903C7
:1001A0008002E00006E000F8428003E000798780EA
:1001B0003903803123007D23003127C07884002952
:1001C000400043E40070270060660070670048C488
:1001D0008074578059E68023E8800360008BE2003A
:1001E000610C0000820911241FBECFEFD8E0DEBFF2
:1001F000CDBF25E0A4E2B1E001C01D92AE35B2074B
:10020000E1F711E0A0E0B1E0EAEFF7E102C005900C
:100210000D92A432B107D9F710E0C3EFD0E004C0CB
:100220002197FE010E94F409C23FD107C9F70E943D
:100230002F060C94FB0B0C94000080389105E8F419
:1002400060347105D0F4FB0123E0F695E7952A951B
:10025000E1F7F695FE2FEE27F795E795E80FF91FE2
:10026000E15BFE4F6770772721E030E001C0220F8D
:100270006A95EAF78385822B8387089580389105F4
:10028000F0F460347105D8F4FB0123E0F695E795AE
:100290002A95E1F7F695FE2FEE27F795E795E80FFB
:1002A000F91FE15BFE4F6770772781E090E001C0A6
:1002B000880F6A95EAF78095938589238387089547
:1002C000382F80E028E0880FE0913D01F0913E0159
:1002D000408190914301492309F08F5FE0913B01F8
:1002E000F0913C014081942B908337FF09C0E0914D
:1002F0003901F0913A01908140914301942B908310
:10030000E0913F01F0914001908140914401942B94
:100310009083E0913F01F091400140819091440130
:10032000909594239083E0913901F0913A014081B6
:1003300090914301909594239083E0913B01F0913B
:100340003C01408190914301909594239083330F19
:10035000215009F0B8CF0895833081F028F481301E
:1003600099F08230A9F008958730A9F08830C9F05B
:100370008430B1F4809180008F7D03C08091800033
:100380008F7780938000089584B58F7784BD08951A
:1003900084B58F7DFBCF8091B0008F778093B000C4
:1003A00008958091B0008F7DF9CFCF93DF93282FF0
:1003B00030E0F901E458FF4F8491F901E656FF4F10
:1003C000D491F901E255FF4FC491CC23A1F08111E2
:1003D0000E94AC01EC2FF0E0EE0FFF1FEE58FF4F34
:1003E000A591B491EC91ED2381E090E009F480E0D7
:1003F000DF91CF91089580E090E0FACF1F93CF93E3
:10040000DF93282F30E0F901E458FF4F8491F90180
:10041000E656FF4FD491F901E255FF4FC491CC232A
:10042000A9F0162F81110E94AC01EC2FF0E0EE0F25
:10043000FF1FE859FF4FA591B4918FB7F894EC9145
:10044000111108C0D095DE23DC938FBFDF91CF91CF
:100450001F910895DE2BF8CFDF92EF92FF920F935A
:100460001F93CF93DF937C01C62F142F052FD22E1D
:10047000809142019091460160E0992371F10E94C0
:10048000FE018BEC97E00197F1F7F8948C2F0E9416
:100490006001C12FD02F8E010D0D111DC017D10786
:1004A00051F089910E946001E114F104B9F7FE0155
:1004B00031978083F3CF789461E0809142010E946C
:1004C000FE018BEC97E00197F1F7DF91CF911F913F
:1004D0000F91FF90EF90DF9008950E94FE01CEBD36
:1004E00000000DB407FEFDCF8EB5812FE12FF02F58
:1004F0009E2F981B9D1568F490819EBD00000DB441
:1005000007FEFDCF9EB5E114F10409F49083319606
:10051000EFCF61E080914201DF91CF911F910F9168
:10052000FF90EF90DF900C94FE01CF93DF931F922A
:10053000CDB7DEB721E0AE014F5F5F4F682F90E08F
:1005400080E00E942C0289810F90DF91CF91089565
:10055000CF93DF931F92CDB7DEB76983682F6062B8
:1005600021E0AE014F5F5F4F81E090E00E942C02DE
:100570000F90DF91CF910895CF93DF9390E0FC012E
:10058000E656FF4F249182559F4FFC0184918823AA
:10059000D1F090E0880F991FFC01E057FF4FA59123
:1005A000B491FC01E859FF4FC591D49161110EC07F
:1005B0009FB7F8948C91E22FE0958E238C9328813D
:1005C000E223E8839FBFDF91CF9108958FB7F8941E
:1005D000EC91E22BEC938FBFF6CFCF93DF93CFE478
:1005E000D1E061E089810E94BC0260E089810E94C3
:1005F000FE0161E088810E94FE0161E089810E9424
:10060000FE0160E08981DF91CF910C94BC0260E033
:10061000809150010E94BC0261E080914F010E94D4
:10062000FE01809150010E94D5010197D1F360E055
:1006300080914F010C94FE013FB7F8948091250101
:1006400090912601A0912701B091280126B5A89B81
:1006500005C02F3F19F00196A11DB11D3FBFBA2F54
:10066000A92F982F8827BC01CD01620F711D811D14
:10067000911D42E0660F771F881F991F4A95D1F799
:1006800008958F929F92AF92BF92CF92DF92EF9296
:10069000FF924B015C010E941C036B017C010E94D4
:1006A0001C036C197D098E099F09683E7340810502
:1006B0009105A8F321E0821A9108A108B10888EEFB
:1006C000C80E83E0D81EE11CF11C81149104A10422
:1006D000B10429F7FF90EF90DF90CF90BF90AF90DB
:1006E0009F908F900895EF92FF920F931F93CF9357
:1006F000DF93E82EF62EC7E0D0E0042F10E0B8011B
:100700000C2E02C0759567950A94E2F761708E2DE4
:100710000E94FE0161E08F2D0E94FE0160E08F2D9E
:100720000E94FE01219758F7DF91CF911F910F9101
:10073000FF90EF9008951F93CF93DF93182FCFE48E
:10074000D1E061E089810E94BC02412F68818981EA
:10075000DF91CF911F910C947303CF93DF93CFE47C
:10076000D1E061E089810E94BC0261E089810E9440
:10077000FE0161E088810E94FE0160E089810E94A3
:10078000FE0160E088810E94FE0148E7688189815E
:10079000DF91CF910C947303CF93909152019923E1
:1007A00041F194EE9093BC009091BC0097FFFCCF78
:1007B00098E79093BB0094EC9093BC009091BC00A0
:1007C00097FFFCCF1092BB0094EC9093BC009091EB
:1007D000BC0097FFFCCF8093BB0084EC8093BC00EF
:1007E0008091BC0087FFFCCF84E98093BC00CF914F
:1007F0000895C82F0E94AD030E94070380E00E9465
:100800009B030E9407038C2F0E949B030E940703F7
:10081000CF910C94ED021F93CF93DF93F89481E274
:100820000E94CC0380E00E94CC038FE70E94CC039F
:1008300082E20E94CC0380E00E94CC0387E00E9409
:10084000CC03809152018823D9F184EE8093BC00BF
:100850008091BC0087FFFCCF88E78093BB0084ECCD
:100860008093BC008091BC0087FFFCCF80E4809324
:10087000BB0084EC8093BC008091BC0087FFFCCF60
:10088000CAE5D1E014EC899190915201992311F1BC
:100890008093BB001093BC008091BC0087FFFCCF0D
:1008A00085E0CA35D80779F7809152018823B9F0DD
:1008B00084E98093BC007894DF91CF911F910895D3
:1008C0000E94AD030E94070380E40E949B030E94E4
:1008D0000703D6CF0E949B030E940703E1CF0E942B
:1008E000ED02E9CF2F923F924F925F926F927F92EB
:1008F0008F929F92AF92BF92CF92DF92EF92FF9230
:100900000F931F93CF93DF9300D000D0CDB7DEB706
:10091000FC0101900020E9F731979F01281B390B5A
:100920003A8329832C01B12CA12C89819A81A816A4
:10093000B9060CF0F2C0909155019A9D40019B9D23
:10094000900C1124F20121912F01809156013091D8
:100950005701231B330B482F477009F071C0869550
:1009600086958695899FC0011124829F1001839FDF
:10097000300C929F300C1124F4E02F0E311C10E04B
:1009800000E0809156018695869586958017110620
:1009900009F00CF4BEC0380163E0660C771C6A9560
:1009A000E1F761019C828B82209155018B819C81B2
:1009B000881999092817190609F00CF43EC0F12C82
:1009C000E12C80915501809FF001819FF00D112451
:1009D000CF018C0D9D1DE0915301F0915401E80F62
:1009E000F91FE49180915901B701660D771DF0E080
:1009F0000E2C02C0F595E7950A94E2F7E0FF07C0D8
:100A0000811107C08B819C810E941D0106C081114C
:100A1000F9CF8B819C810E943E012FEFE21AF20AEE
:100A200038E0E316F10469F68B819C8101969C8382
:100A30008B839FEFC91AD90AB7CF0F5F1F4FA1CF82
:100A4000989FC001112443E0959587954A95E1F759
:100A5000829F7001839FF00C929FF00C1124E4E0C0
:100A6000EE0EF11CE0915301F0915401EE0DFF1DCB
:100A7000E4916E2E712C9C828B8257E0C52ED12C76
:100A8000209155018B819C81881999092817190695
:100A900009F00CF43EC010E000E080915601801790
:100AA000110689F184F18091590193010C2C02C047
:100AB000359527950A94E2F7B80120FF07C0811108
:100AC00007C08B819C810E941D0106C08111F9CF56
:100AD0008B819C810E943E01F1E0CF1AD108D7FEA4
:100AE0000FC02FEFE21AF20AE0915301F091540186
:100AF000EE0DFF1DE4916E2E712C87E0C82ED12CD7
:100B00000F5F1F4FCACF8B819C8101969C838B8383
:100B1000B7CF9FEFA91AB90A08CF0F900F900F9087
:100B20000F90DF91CF911F910F91FF90EF90DF9089
:100B3000CF90BF90AF909F908F907F906F905F907D
:100B40004F903F902F900895CF92DF92EF92FF92B7
:100B50000F931F93CF93DF93CDB7DEB7CDB6DEB63D
:100B6000FC010481158198012F5F3F4F4DB75EB79F
:100B7000421B530B0FB6F8945EBF0FBE4DBFEDB7CF
:100B8000FEB731967F01232B21F00115110591F459
:100B90001082C7010E9472040FB6F894DEBE0FBE29
:100BA000CDBEDF91CF911F910F91FF90EF90DF901D
:100BB000CF900895FC0160817181A801C7010E9456
:100BC000EC0BF701E00FF11FE3CF1F920F920FB66E
:100BD0000F9211242F933F938F939F93AF93BF93C3
:100BE00080912A0190912B01A0912C01B0912D01AF
:100BF0003091240123E0230F2D3758F50196A11DD4
:100C0000B11D2093240180932A0190932B01A0937E
:100C10002C01B0932D018091250190912601A09186
:100C20002701B09128010196A11DB11D80932501D6
:100C300090932601A0932701B0932801BF91AF9113
:100C40009F918F913F912F910F900FBE0F901F900A
:100C5000189526E8230F0296A11DB11DD2CFCF9380
:100C6000DF93CDB7DEB7A7970FB6F894DEBF0FBE00
:100C7000CDBF789484B5826084BD84B5816084BD25
:100C800085B5826085BD85B5816085BD80916E002A
:100C9000816080936E00109281008091810082605B
:100CA0008093810080918100816080938100809198
:100CB00080008160809380008091B1008460809387
:100CC000B1008091B00081608093B00080917A0083
:100CD000846080937A0080917A00826080937A00A9
:100CE00080917A00816080937A0080917A00806898
:100CF00080937A001092C100809151018F3FF1F0F2
:100D000061E00E94BC0261E0809151010E94FE01FD
:100D100061E070E080E090E00E94410360E080913B
:100D200051010E94FE016AE070E080E090E00E94C4
:100D3000410361E0809151010E94FE0180914F01C9
:100D400090915001923109F066C1833109F063C17D
:100D500081E08093520161E082E10E94FE0161E046
:100D600083E10E94FE018091B9008E7F8093B900DB
:100D70008091B9008D7F8093B9008CE08093B8009A
:100D800085E08093BC008EEA0E94CC0385ED0E9432
:100D9000CC0380E80E94CC0388EA0E94CC038FE356
:100DA0000E94CC0383ED0E94CC0380E00E94CC0320
:100DB00080E40E94CC038DE80E94CC0384E10E9471
:100DC000CC0380E20E94CC0380E00E94CC0381EA45
:100DD0000E94CC0388EC0E94CC038AED0E94CC03D5
:100DE00082E10E94CC0381E80E94CC038FEC0E9438
:100DF000CC0389ED0E94CC0381EF0E94CC038BEDE4
:100E00000E94CC0380E40E94CC0384EA0E94CC03BD
:100E100086EA0E94CC038FEA0E94CC03EAE5F1E067
:100E200080E094E0DF019C011D9221503040E1F709
:100E30000E940B04E2ECF0E0F0935401E0935301C4
:100E4000E491E0935501E3ECF0E0E491E093560186
:100E5000E4ECF0E0E491E0935701E5ECF0E0E4919C
:100E6000E09358011092590161E085E00E94BC02B4
:100E700061E08AE00E94BC0261E08AE00E94FE011B
:100E8000109246011092410181E08093420161E09D
:100E900080E00E94BC0261E0809142010E94BC029D
:100EA00061E0809142010E94FE018AE00E94D5012A
:100EB000182F8CB58C7F8CBD8DB581608DBD0FB723
:100EC000F89480912901811127C0E8EBF0E084912A
:100ED000E4EAF0E09491E82FF0E0EE0FFF1FE05716
:100EE000FF4FA591B491EC91E92321F461E08AE0F0
:100EF0000E94FE0161E08AE00E94BC028CB5806124
:100F00008CBD8CB580648CBD61E08DE00E94BC021C
:100F100061E08BE00E94BC02809129018F5F809389
:100F200029010FBF809142018A3021F0612F8AE0B0
:100F30000E94FE0111E01093450164E670E080E03C
:100F400090E00E94410364E685E00E94A8026EE002
:100F500086E00E94A8026FE184E00E94A80288E572
:100F600092E090934A01809349018AEF90E0909338
:100F70004801809347011983A2E0FA2EFA8283E0A8
:100F80008B8384E08C83FD8225E08E010F5F1F4FF1
:100F9000A8016BE281E090E00E942C0263E08CE10A
:100FA0000E94A80267E08DE10E94A80220E050E0C4
:100FB00040E062EE81E090E00E942C0220E050E0F0
:100FC00040E061EE81E090E00E942C0287E00E9408
:100FD0009502682F606787E00E94A8026BE080E0BE
:100FE0000E94A80261E0809141010E94FE0183E518
:100FF00098E40197F1F780E00E9495028B3089F028
:1010000086E091E00E9472040E940B0461E085E09A
:101010000E94FE01FFCF1092520161E00E94BC02CB
:10102000B2CEF0922E0160E085E00E94FE017724AE
:10103000739442E0642E53E0552E64E0462E73E52F
:10104000A72E78E4B72EE3E2EE2EF12CF0E0CF2EBF
:10105000F0E0DF2E2FB7F89460912A0170912B01F8
:1010600080912C0190912D012FBF60932F017093DF
:10107000300180933101909332011BA21AA21DA26C
:101080001CA21FA21EA22AE0A8010E948B09F8013F
:1010900001900020E9F731974F01801A910A8AA147
:1010A0009BA1009729F02CA13DA12815390590F4AA
:1010B000B4016F5F7F4F0E941F0B009709F48FC030
:1010C0009BA38AA39DA28CA22EA13FA1232B11F446
:1010D000DC011C929FA28EA2B8018AA19BA10E9452
:1010E000E50B89C07092450187E00E949502982F18
:1010F000907329F0682F606387E00E94A80229E0BE
:101100004EE251E060EA81E090E00E942C02809182
:10111000410190914201891759F061E00E94FE015E
:10112000C7010197F1F760E0809141010E94FE0143
:1011300080914701909148018230910538F0880FE5
:10114000991F880F991F05970197F1F787E00E9473
:101150009502982E85FF20C0682F606287E00E946C
:10116000A80261E085E00E94FE0164E670E080E094
:1011700090E00E94410360E085E00E94FE0168EE7D
:1011800073E080E090E00E944103C114D10409F4AF
:1011900061CF0E9400005ECF84FFCACF20E050E004
:1011A00040E061EE81E090E00E942C02692D6061D8
:1011B00087E00E94A8028091330190913401A091B0
:1011C0003501B09136010196A11DB11D8093330107
:1011D00090933401A0933501B0933601C2CF8AA118
:1011E0009BA1009711F00E94960A1BA21AA21FA2AF
:1011F0001EA21DA21CA2CE0182960E94A4058AA155
:101200009BA10E94960A0E940B0479826A825B82EB
:101210004C821D8225E0A80160E381E090E00E94FD
:101220002C0225E0A8016AE281E090E00E942C02F5
:1012300080E00E949502982F9C7F992E689491F8E7
:101240008915A9F08370833059F4809141010E947F
:10125000D501019729F460E0809141010E94FE01CF
:10126000692D80E00E94A802C5010197F1F787E18E
:101270000E949502982E81FF08C020E050E040E0D7
:1012800062EE81E090E00E942C0295FE2DCF10923C
:10129000450194FC27CF61E0809141010E94FE014D
:1012A000C7010197F1F760E0809141010E94FE01C2
:1012B00080914701909148018230910538F0880F64
:1012C000991F880F991F05970197F1F787E00E94F2
:1012D0009502982E682F606285FD0CC084FF0DC0BA
:1012E00020E050E040E061EE81E090E00E942C02BE
:1012F000692D606187E00E94A80287E10E94950243
:10130000982EC7CFEFE4F1E082E1818383E180830F
:1013100088E082830895BB27FA01A62F6217710522
:1013200081059105330B30FB66F0AA27660F771F06
:10133000881F991FAA1FA21710F0A21B639538508F
:10134000A9F7A05DAA3308F0A95DA19336F7B11102
:10135000B1931082CA010C94AD09DC01FC01672F26
:1013600071917723E1F7329704C07C916D9370837C
:101370006291AE17BF07C8F308952F923F924F9224
:101380005F926F927F928F929F92AF92BF92CF9215
:10139000DF92EF92FF920F931F93CF93DF93CDB71E
:1013A000DEB7CA1BDB0B0FB6F894DEBF0FBECDBF96
:1013B00009942A88398848885F846E847D848C8467
:1013C0009B84AA84B984C884DF80EE80FD800C8170
:1013D0001B81AA81B981CE0FD11D0FB6F894DEBF53
:1013E0000FBECDBFED010895EE0FFF1F0590F491E4
:1013F000E02D09940F931F93CF93DF9382309105D3
:1014000010F482E090E0E0915C05F0915D0530E041
:1014100020E0B0E0A0E0309799F42115310509F4FF
:101420004AC0281B390B24303105D8F58A819B81AD
:101430006115710589F1FB0193838283FE0111C05F
:10144000408151810281138148175907E0F0481704
:10145000590799F4109761F012960C93129713960E
:101460001C933296CF01DF91CF911F910F91089578
:1014700000935C0510935D05F4CF2115310551F003
:101480004217530738F0A901DB019A01BD01DF01C2
:10149000F801C1CFEF01F9CF90935D0580935C0512
:1014A000CDCFFE01E20FF31F8193919322503109BA
:1014B00039832883D7CF20915A0530915B05232BA0
:1014C00041F4209102013091030130935B05209398
:1014D0005A0520910001309101012115310541F497
:1014E0002DB73EB74091040150910501241B350BE7
:1014F000E0915A05F0915B05E217F307A0F42E1B6B
:101500003F0B2817390778F0AC014E5F5F4F241767
:10151000350748F04E0F5F1F50935B0540935A0507
:10152000819391939FCFF0E0E0E09CCFCF93DF9346
:101530000097E9F0FC01329713821282A0915C05BA
:10154000B0915D05ED0130E020E01097A1F420811D
:101550003181820F931F20915A0530915B05281726
:10156000390709F061C0F0935B05E0935A05DF91FC
:10157000CF910895EA01CE17DF07E8F54A815B8134
:101580009E0141155105B1F7E901FB83EA834991B9
:101590005991C40FD51FEC17FD0761F4808191812B
:1015A0000296840F951FE901998388838281938134
:1015B0009B838A83F0E0E0E012968D919C911397D3
:1015C0000097B9F52D913C911197CD010296820FAC
:1015D000931F20915A0530915B052817390739F67A
:1015E000309751F510925D0510925C05B0935B0544
:1015F000A0935A05BCCFD383C28340815181840F0D
:10160000951FC817D90761F44E5F5F4F8881998194
:10161000480F591F518340838A819B819383828322
:101620002115310509F0B0CFF0935D05E0935C051D
:101630009ECFFD01DC01C0CF13821282D7CFB0E074
:10164000A0E0E5E2FBE00C94BF098C01009751F4A7
:10165000CB010E94FA098C01C801CDB7DEB7E0E1E9
:101660000C94DB09FC01E60FF71F9C0122503109A5
:10167000E217F30708F49DC0D901CD91DC911197D1
:10168000C617D70798F0C530D10530F3CE010497BF
:101690008617970708F3C61BD70B2297C193D193E0
:1016A0006D937C93CF010E94960AD6CF5B01AC1A52
:1016B000BD0A4C018C0E9D1EA0915C05B0915D058C
:1016C000512C412CF12CE12C109731F580915A05C9
:1016D00090915B058815990509F05CC04616570680
:1016E00008F058C08091000190910101009741F4E9
:1016F0008DB79EB74091040150910501841B950B55
:10170000E817F90708F055C0F0935B05E0935A0518
:10171000F90171836083A0CF8D919C9111971296EE
:101720006C90129713967C901397A815B90559F5EC
:101730006C0142E0C40ED11CCA14DB0420F1AC01E0
:101740004A195B09DA011296159780F0628273825A
:1017500051834083D9016D937C93E114F10471F0BE
:10176000D7011396FC93EE93129776CF22968C0FA7
:101770009D1FF90191838083F301EFCFF0935D0505
:10178000E0935C0569CF4816590608F42C017D01E9
:10179000D3019ACFCB010E94FA097C01009749F04E
:1017A000AE01B8010E94DC0BC8010E94960A8701B5
:1017B00053CF10E000E050CFFB01DC0102C00190EC
:1017C0000D9241505040D8F70895FB01DC01019083
:1017D0000D920020E1F70895FB01DC0141505040DB
:1017E00048F001900D920020C9F701C01D924150B0
:0A17F0005040E0F70895F894FFCF91
:1017FA0000005E05800043616E6E6F7420636F6D3A
:10180A006D756E69636174652077697468207261A9
:04181A0064696F008E
:00000001FF
