:107800000C94573C0C94693C0C94693C0C94693C76
:107810000C94693C0C94693C0C94693C0C94693C54
:107820000C94693C0C94693C0C94693C0C94693C44
:107830000C94693C0C94693C0C94693C0C94693C34
:107840000C94693C0C94693C0C94693C0C94693C24
:107850000C94693C0C94693C0C94693C0C94693C14
:107860000C94693C0C94693C536D696C6579466C69
:1078700061736854657374202D2041726475696E5C
:107880006F20312E30310A005468697320697320EB
:1078900061207465737420666F722073656E64690D
:1078A0006E67206120737472696E672E0A0011245E
:1078B0001FBECFEFD8E0DEBFCDBF11E0A0E0B1E04A
:1078C00001C01D92A238B107E1F70E94883C0C94D8
:1078D000313D0C94003C8091C000881F8827881F90
:1078E0000895BC0120E030E009C0A8958091C00057
:1078F00085FFFCCF4093C6002F5F3F4FFB01E20F97
:10790000F31F4491442319F02035310571F7089590
:10791000DF92EF92FF920F931F93CF93DF9310921A
:10792000C50080E18093C40088E18093C10080910C
:10793000C2008A608093C20088E698E70E94713C8A
:1079400088E898E70E94713C9FE3D92E83E0E82EF7
:1079500060E070E2FF24F39405E011E18091C00043
:1079600087FFFCCF8091C600823781F4E0E0F0E22F
:107970009491A8958091C00085FFFCCF9093C6009C
:10798000319680E2E031F80799F7E8CF873781F543
:1079900080E090E0FC01EE5FFE4F80830196803135
:1079A0009105C1F7FB01E0925700E89507B600FC8E
:1079B000FDCFA2E0B1E0E0E0F0E28C9111963C91C5
:1079C000119720E0E901C80FD11D0E01F092570078
:1079D000E89511243296129680E2E031F80769F7B3
:1079E000FB0100935700E89507B600FCFDCF2DC0C2
:1079F000873579F5A2E0B1E0FD01119281E0E23135
:107A0000F807D9F7FB01E0925700E89507B600FCAC
:107A1000FDCFE0E0F0E28C9111965C91119740E08F
:107A2000EA01C80FD11D0E01F0925700E89511240C
:107A30003296129680E2E031F80769F7FB01009375
:107A40005700E89507B600FCFDCF10935700E89566
:107A500085CFA8958091C00085FFFCCFD092C6004D
:067A60007DCFF894FFCF7A
:040000030000780081
:00000001FF
