:10FC00000C94627E0C94747E0C94747E0C94747EBE
:10FC10000C94747E0C94747E0C94747E0C94747E9C
:10FC20000C94747E0C94747E0C94747E0C94747E8C
:10FC30000C94747E0C94747E0C94747E0C94747E7C
:10FC40000C94747E0C94747E0C94747E0C94747E6C
:10FC50000C94747E0C94747E0C94747E0C94747E5C
:10FC60000C94747E0C94747E0C94747E0C94747E4C
:10FC70000C94747E0C94747E0C94747E536D696C39
:10FC80006579466C6173685772697465202D2042EE
:10FC900065415652343020312E30380A005468699C
:10FCA000732069732061207465737420666F7220FD
:10FCB00073656E64696E67206120737472696E6724
:10FCC0002E0A000011241FBECFEFD0E1DEBFCDBF52
:10FCD00012E0A0E0B1E001C01D92A230B107E1F74F
:10FCE0000E948D7E0C944B7F0C94007EBC0120E022
:10FCF00030E009C0A8958091C00085FFFCCF4093FB
:10FD0000C6002F5F3F4FFB01E20FF31F44914423D6
:10FD100019F02035310571F70895CF92DF92EF92F7
:10FD2000FF920F931F93CF93DF931092C50080E152
:10FD30008093C40088E18093C1008091C2008A60F2
:10FD40008093C2008CE79CEF0E94767E8DE99CEF49
:10FD50000E94767E2FE3C22E93E0D92E60E070E2FF
:10FD6000EE24E39485E0F82E01E111E2A89580915C
:10FD7000C00087FFFCCF8091C600823781F4E0E0AD
:10FD8000F0E29491A8958091C00085FFFCCF9093FC
:10FD9000C600319680E2E031F80799F7E7CF873760
:10FDA00009F038C080E090E0FC01EE5FFE4F8083F8
:10FDB000019680319105C1F7FB01D0925700E8957B
:10FDC00007B600FCFDCFA2E0B1E0E0E0F0E28C91EC
:10FDD00011963C91119720E0E901C80FD11D0E0149
:10FDE000E0925700E89511243296129680E2E031B5
:10FDF000F80769F7FB01F0925700E89507B600FC99
:10FE0000FDCF00935700E895A8958091C00085FF2D
:10FE1000FCCF36C0873509F036C0A2E0B1E0FD0165
:10FE2000119281E0E231F807D9F7FB01D092570037
:10FE3000E89507B600FCFDCFE0E0F0E28C9111966A
:10FE40005C91119740E0EA01C80FD11D0E01E092CC
:10FE50005700E89511243296129680E2E031F807B7
:10FE600069F7FB01F0925700E89507B600FCFDCF5B
:10FE700000935700E895A8958091C00085FFFCCFBE
:10FE80001093C60073CFA8958091C00085FFFCCF6A
:0AFE9000C092C6006BCFF894FFCFBC
:040000030000FC00FD
:00000001FF
