:103800000C94531C0C94651C0C94651C0C94651C46
:103810000C94651C0C94651C0C94651C0C94651C24
:103820000C94651C0C94651C0C94651C0C94651C14
:103830000C94651C0C94651C0C94651C0C94651C04
:103840000C94651C0C94651C0C94651C0C94651CF4
:103850000C94651C0C94651C0C94651C536D696C70
:103860006579466C6173685772697465202D2042D2
:103870007574746572666C7920312E30330A005489
:103880006869732069732061207465737420666FA2
:10389000722073656E64696E67206120737472694B
:1038A0006E672E0A000011241FBECFEFD4E0DEBFEA
:1038B000CDBF11E0A0E0B1E001C01D92A238B10778
:1038C000E1F70E94E51C0C941C1E0C94001C8091D6
:1038D000C00087FD02C080E00895A8958091C000D7
:1038E00085FFFCCF89E38093C60081E00895BC0189
:1038F00020E030E009C0A8958091C00085FFFCCF92
:103900004093C6002F5F3F4FFB01E20FF31F44912E
:10391000442319F02035310571F7089580E880932C
:10392000610083E0809361001092700088E08093D2
:10393000B60088EC8093B30010926E0081E0809313
:1039400081008093B0002091B6008091B60090E095
:103950008470907030E021703070822B932B892B13
:1039600091F74FEF51E0F89446BB47BB10928500AA
:10397000109284001092B200B99BFECF1092810089
:103980007894B09917C09091840080918500382F69
:1039900020E0B901690F711DCB0178E18B369707E3
:1039A00024F080916600815008C0885E974114F031
:1039B00081E006C0809166008F5F8093660080E0A2
:1039C00050938100882379F208955F926F927F92DD
:1039D0008F929F92AF92BF92CF92DF92EF92FF921F
:1039E0000F931F93CF93DF931092C50089E18093CB
:1039F000C400B8E1FB2EF092C10010E81093610002
:103A000002E0009361000093C000F092C100A6E0C4
:103A1000EA2EE092C2000E948E1C10BF87E08093C5
:103A20007F008FEF85B98EB910936100009361001C
:103A30001092C5008CE08093C4000093C000F09207
:103A4000C100E092C20081E085BF05BF789480E5A7
:103A500080936C0080E88CBB8DBB8CE598E30E9462
:103A6000771C8FE798E30E94771CF9E36F2EE5E35C
:103A70005E2E73E3772E64E3862E56E3A52E47E38E
:103A8000942E33E0D32E60E073E0EE24E39425E03F
:103A9000F22E01E111E291E3C92E82E3B82E80916A
:103AA000C00087FFFCCFA8958091C00085FFFCCFA8
:103AB0006092C600A8958091C00085FFFCCF50920F
:103AC000C600A8958091C00085FFFCCF7092C6000B
:103AD000A8958091C00085FFFCCF8092C600909190
:103AE000C600A8958091C00085FFFCCFA092C600BB
:103AF0009237F1F4A8958091C00085FFFCCFC09269
:103B0000C600E0E0F3E09491A8958091C00085FFA5
:103B1000FCCF9093C600319683E0E031F80799F727
:103B2000A8958091C00085FFFCCFB092C6007BC0F5
:103B3000973709F038C080E090E0FC01EE5FFE4F5F
:103B40008083019680319105C1F7FB01D092570027
:103B5000E89507B600FCFDCFA2E0B1E0E0E0F3E0BD
:103B60008C9111963C91119720E0E901C80FD11D6D
:103B70000E01E0925700E89511243296129683E0E8
:103B8000E031F80769F7FB01F0925700E89507B6B6
:103B900000FCFDCF00935700E895A8958091C000E8
:103BA00085FFFCCF36C0973509F036C0A2E0B1E002
:103BB000FD01119281E0E231F807D9F7FB01D092C3
:103BC0005700E89507B600FCFDCFE0E0F3E08C91EC
:103BD00011965C91119740E0EA01C80FD11D0E01CA
:103BE000E0925700E89511243296129683E0E03176
:103BF000F80769F7FB01F0925700E89507B600FC5B
:103C0000FDCF00935700E895A8958091C00085FFEF
:103C1000FCCF1093C60007C0A8958091C00085FF17
:103C2000FCCF9093C600A8958091C00085FFFCCF83
:0C3C30009092C60034CF0895F894FFCFA6
:0400000300003800C1
:00000001FF
