:100000000C9434000C943E000C943E000C943E0082
:100010000C943E000C943E000C943E000C943E0068
:100020000C943E000C943E000C943E000C943E0058
:100030000C943E000C943E000C943E000C943E0048
:100040000C943E000C943E000C943E000C943E0038
:100050000C943E000C943E000C943E000C943E0028
:100060000C943E000C943E0011241FBECFEFD8E04C
:10007000DEBFCDBF0E9451000C945C000C940000C8
:1000800084E020E29BB192279BB93FEF49E698E1DB
:10009000315040409040E1F700C00000815091F79E
:1000A0000895559A3B98439A0E944000339902C0A4
:0C00B0000C94003F5D9AFACFF894FFCF4B
:00000001FF
