:100000000C94F7060C941F070C941F070C941F0701
:100010000C941F070C941F070C941F070C941F07C8
:100020000C941F070C941F070C941F070C94530982
:100030000C941F070C941F070C941F070C941F07A8
:100040000C94BA080C941F070C941F070C941F07FC
:100050000C941F070C941F070C941F070C941F0788
:100060000C941F070C941F070101FF030101F70304
:10007000FC04FC04FC04FC04FC04FC04FC04FC0480
:10008000FC04FC04FC04FC04FC04FC04FC04FC0470
:100090000000FC04FC04FC04FC04FC04FC04FC0460
:1000A000FC04FC04FC04FC04FC04FC04FC04FC0450
:1000B000FC040000FC04FC04FC04FC04FC04FC0440
:1000C000FC04FC04FC04FC04FC04FC04FC04FC0430
:1000D000FC04FC040000FC04FC04FC04FC04FC0420
:1000E000FC04FC04FC04FC04FC04FC04FC04FC0410
:1000F000FC04FC04FC040000FC04FC04FC04FC0400
:10010000FC04FC04FC04FC04FC04FC04FC04FC04EF
:10011000FC04FC04FC04FC040000FC04FC04FC04DF
:10012000FC04FC04FC04FC04FC04FC04FC04FC04CF
:10013000FC04FC04FC04FC04FC040000FC04FC04BF
:10014000FC04FC04FC04FC04FC04FC04FC04FC04AF
:10015000FC04FC04FC04FC04FC04FC040000FC049F
:10016000FC04FC04FC04FC04FC04FC04FC04FC048F
:10017000FC04FC04FC04FC04FC04FC04FC0400007F
:10018000FC04FC04FC04FC04FC04FC04FC04FC046F
:10019000FC04FC04FC04FC04FC04FC04FC04FC045F
:1001A000000000000000000000000000000000004F
:1001B0000000FC04FC04FC04FC04FC04FC04FC043F
:1001C000FC04FC04FC04FC04FC046804FC04FC04C3
:1001D000FC0400000804FC040C04FC04FC04FC0403
:1001E0001404FC041804FC04FC04FC04E404FC04F3
:1001F000E404E4040000000000000000000000002F
:100200000804FC04FC04FC04FC04FC040804FC04D6
:100210000804FC04FC04FC04FC04FC04FC04FC04D2
:10022000000000000804FC040804FC04FC04FC04B6
:100230000804FC040C04FC04FC04FC04FC04FC04A2
:10024000FC04FC0400000804FC040804FC04FC0496
:10025000FC040804FC040C04FC04FC04FC04FC0482
:10026000FC04FC04FC0400000804FC040804FC0476
:10027000FC04FC040804FC040C04FC04FC04FC0462
:10028000FC04FC04FC04FC0400000804FC04080456
:10029000FC04FC04FC040804FC040C04FC04FC0442
:1002A000FC04FC04FC04FC04FC0400000804FC0442
:1002B0000804FC04FC04FC040804FC040C04FC0416
:1002C000FC04FC04FC04FC04FC04FC04000000002E
:1002D00000000804FC040804FC04FC04FC040804FA
:1002E000FC040C04FC04FC04FC04FC04FC04FC04FE
:1002F000FC0400000804FC040804FC04FC04FC04E6
:100300000804FC040804FC04FC04FC04FC04FC04D5
:10031000FC04FC040000FC04FC04FC04FC04FC04DD
:10032000FC04FC04FC04FC04FC04FC04FC04FC04CD
:10033000FC04FC04A8040000FC04FC04FC04FC0411
:10034000FC04FC04FC04FC04FC04FC04FC04FC04AD
:10035000FC04FC04FC04A8040000FC04FC04FC04F1
:10036000FC04FC04FC04FC04FC04FC04FC04FC048D
:10037000FC04FC04FC04FC04A8040000FC04FC04D1
:10038000FC04FC04FC04FC04FC04FC04FC04FC046D
:10039000FC04FC04FC04FC04FC04A80400000804A5
:1003A000FC0408040804FC0408040804FC04080411
:1003B000FC04080408040804FC040804FC0400000D
:1003C0000000000000000804FC0408040804FC0409
:1003D00008040804FC040804FC04080408040804D5
:1003E000FC040804FC0400000804FC0408040804DD
:1003F000FC0408040804FC040804FC0408040804C1
:100400000804FC040804FC0400000804FC040804BC
:100410000804FC0408040804FC040804FC040804A0
:1004200008040804FC040804FC0400000804FC049C
:1004300008040804FC0408040804FC040804FC0480
:10044000080408040804FC040804FC040000080470
:10045000FC0408040804FC0408040804FC04080460
:10046000FC04080408040804FC040804FC0400005C
:100470000804FC0408040804FC0408040804FC0440
:100480000804FC04080408040804FC040804FC0430
:1004900000000804FC0408040804FC040804080420
:1004A000FC040804FC04080408040804FC04080410
:1004B000FC0400000804FC0408040804FC0408040C
:1004C0000804FC040804FC04080408040804FC04F0
:1004D0000804FC0400000804FC0408040804FC04EC
:1004E00008040804FC040804FC04080408040804C4
:1004F000FC040804FC0400000804FC040C04FC04D4
:10050000FC04FC041404FC041804FC04FC04FC04B7
:10051000E404FC04E404E40400000804FC040C0407
:10052000FC04FC04FC041404FC041804FC04FC0497
:10053000FC04E404FC04E404E40400000000000003
:1005400000000000FC04FC0408040804FC04FC0493
:100550000804FC0408040804FC04FC04FC0408046B
:100560000804FC0400000804FC043804FC04FC0437
:10057000FC040804FC043804FC04FC04FC04FC0433
:10058000FC04FC04FC0400000804FC043804FC0423
:10059000FC04FC040804FC043804FC04FC04FC0413
:1005A000FC04FC04FC04FC0400000804FC04380403
:1005B000FC04FC04FC040804FC043804FC04FC04F3
:1005C000FC04FC04FC04FC04FC0400000804FC041F
:1005D0003804FC04FC04FC040804FC043804FC0497
:1005E000FC04FC04FC04FC04FC04FC040000E40423
:1005F000FC043C04E404FC041404E404140418049F
:100600004804E404D404E404A804E404E40400007A
:1006100000000000E404FC043C04E404FC041404B2
:10062000E404140418044804E4047804E404A8046A
:10063000E404E4040000E404FC043C04E404FC04DA
:100640000C04E40408043804FC04E4040804E4048E
:10065000E404FC04E4040000E404FC043804E404BE
:10066000FC040804E4040C043C04FC04E4040C044E
:10067000E404FC04E404E4040000000000000000C2
:1006800000000000000000000000E404FC04380446
:10069000E404FC040804E40408043804FC04E4044E
:1006A0000804E404FC04E404FC0400000000080462
:1006B0000804080408040804FC040804FC040804F2
:1006C0000804FC0408040804FC04080408040000EE
:1006D000E404FC040C04FC04E4041404E404140422
:1006E0001804FC04E4041804E404E4041804E40416
:1006F00000000804FC040C04FC04FC04FC041404C6
:10070000FC041804FC044804FC041804FC04480419
:10071000FC0400002804FC042C04FC04FC04FC047D
:100720003404FC043804FC04FC04FC04FC04FC0455
:10073000FC04FC0400000000000000000804FC04AD
:100740000C04FC04FC04FC040804FC040804FC0481
:10075000FC04FC041804FC04FC04FC0400000C046D
:10076000FC040804FC04FC04FC040804FC040C0461
:10077000FC04FC04FC04FC04FC04FC04FC04000079
:100780000804FC040804FC04FC04FC040804FC0445
:100790000C04FC04FC04FC04FC04FC04FC04FC0449
:1007A00000000804FC040804FC04FC04FC04080425
:1007B000FC040804FC04FC04FC04FC04FC04FC042D
:1007C000FC0400000804FC040C04FC04FC04FC040D
:1007D0000804FC040804FC04FC04FC04FC04FC0401
:1007E000FC04FC0400003804FC043804FC04FC0491
:1007F000FC043804FC043804FC04FC04FC04FC0481
:10080000FC04FC04FC04000000000804FC040804D0
:10081000FC04FC04FC040804FC040C04FC04FC04BC
:10082000FC04FC04FC04FC04FC0400000000E404E0
:10083000FC040C04FC04E404FC04E404FC040804CC
:10084000FC04E404E404E404FC04E404E404000020
:10085000E404FC040804FC04E404FC04E404FC04D4
:100860000C04FC04E404FC04E404FC04E404FC04C0
:100870000000E404FC040804FC04E404FC04E404B4
:10088000FC040C04FC04E404FC04E404FC04E404A0
:10089000E4040000E404FC040804FC04E404FC0494
:1008A000E404FC040804FC04E404FC04E404FC0484
:1008B000E404FC0400000804FC040804FC04FC0438
:1008C000FC040C04FC041804FC04FC04FC04FC04FC
:1008D000FC04FC04FC0400000804FC040C04FC04FC
:1008E000FC04FC040804FC040804FC04FC04FC04F0
:1008F000FC04FC04FC04FC0400000C04FC040804DC
:10090000FC04FC04FC040804FC040C04FC04FC04CB
:10091000FC04FC04FC04FC04FC0400000804FC04CB
:100920000804FC04FC04FC040804FC040C04FC049F
:10093000FC04FC04FC04FC04FC04FC0400000804AB
:10094000FC040804FC04FC04FC040804FC04080483
:10095000FC04FC04FC04FC04FC04FC04FC04000097
:100960006C00680005008930080238024978681474
:1009700000003E091C09FA08D808B6089408720855
:1009800050082E082C080A080808E607C407A20722
:1009900080075E073C073A07380736071407F20658
:1009A000D006AE06AC068A0688068606840682064F
:1009B00080067E067C067A0658063606140612065F
:1009C0001006EE05CC05AA05880566054405420516
:1009D00040053E053C051A05F804D604B40492040B
:1009E00070044E042C040A04E803C603C403C203C3
:1009F000C0039E037C035A0338031603F402D20299
:100A0000D002CE02AC028A0268024602240222020E
:100A10000002FE01FC01FA01F801F601D401B20165
:100A2000B001AE01AC01AA01A801A601A401A20176
:100A300080015E013C011A01F800D600B40092006A
:100A400070004D757369632064656D6F004F0055CC
:100A5000004F0055000000010002000300000001EB
:100A60000002000300000001000200320005000641
:100A7000000700080005000600070017001A002301
:100A800000230024001A002300330025001A00234D
:100A900000230024001A002300230028004D005FDB
:100AA000004D005F004D005F004D005F004D005F96
:100AB000004D005F004D005F004D005F00FFFF4DE7
:100AC000757369632064656D6F0000000000240089
:100AD00027002A0000000000250028002B00050048
:100AE00038016801000017534400161378001613EC
:100AF00014001510200015201000540A03E181860F
:100B00007F3E186D830F0F0E0183866033186DC30F
:100B1000198F1803C38E6033186DE330CF1803C3E9
:100B20009E603630CDE360CF3006C79E7E3E30CD2E
:100B3000B360CF300CC6F6603330D9B660CF33CF58
:100B4000CCF66061B0DB1E60CF30D86CE6C061B01F
:100B5000DB1E618F19986CC6C063B19B0E330F0FFB
:100B6000B078C6FF7E1F1B061E0F0A0A153A49679A
:100B70006E6F7265006D560A0A504C454153452010
:100B80005455524E204F464620004C4F572042416C
:100B9000545445525921200003053F213F120812A9
:100BA0000A100A0E1C0E0C1E0C141A14161F161E08
:100BB000131E1E1B1E1E1F1E3F213F3A2F3A173DBC
:100BC000173F213F181F02040A041F0E04040E1FC2
:100BD0000A1F0A0E0E1F04110E2E252E2F2A2E2656
:100BE0002929021F02081F08150E04040E150E15F0
:100BF000151B151B040604040C040000000017005C
:100C00000300031F0A1F16371A1904130A153A00A6
:100C10000300000E11110E000A040A040E04003035
:100C2000000404040010001804031F111F121F10F9
:100C30001D151711151F07041F17151D1F151D0161
:100C4000011F1F151F17151F000A00003200040A9C
:100C5000110A0A0A110A040115020E11171E051EB7
:100C60001F150A0E110A1F110E1F15111F05010E67
:100C7000111D1F041F111F1108100F1F041B1F102F
:100C8000101F061F1E040F0E110E1F09060E112E37
:100C90001F051A121509011F011F101F0F180F1F22
:100CA0000C1F1B041B031C03191513001F11030445
:100CB00018111F000201022020200001020C121E48
:100CC0001F120C0C12120C121F0C1A14041E0524F5
:100CD0002A1E1F021C141D1020201D1F0814111F86
:100CE000101E041E1E021C0C120C3E0A040C123EA6
:100CF0001E040214160A020F120E101E0E100E1EF3
:100D0000081E120C1226281E322A26041E21001F3D
:100D100000211E040102013F213FF6E8DBCFC3B8EA
:100D2000AEA49B928A827B746E68625C57524E4975
:100D300045413E3A3734312E2C29272523214500C1
:100D400068010000172B152010204C4F41444552DC
:100D500000172B16201314000A4E6F2053442063F3
:100D6000617264206F720A6E6F204C4F414445528D
:100D70002E4845580A0A153A45786974001D2046E0
:100D80006C617368696E670A20206C6F61646572BC
:100D90002E2E2E0A0A444F4E2754205455524E20D0
:100DA0004F464621000000000023002600290004D1
:100DB0000404040404040402020202020203030302
:100DC00003030301020408102040800102040810FC
:100DD00020010204081020000000080002010000A9
:100DE000030407000000000000000000B4171124F5
:100DF0001FBECFEFD8E0DEBFCDBF11E0A0E0B1E075
:100E0000EAE2F3E302C005900D92A435B107D9F7E9
:100E100023E0A4E5B1E001C01D92AB3EB207E1F7CB
:100E200016E0C7EFD6E004C02197FE010E948819A2
:100E3000C63FD107C9F70E947B140C9493190C94F8
:100E40000000CF92DF92EF92FF920F931F93CF9308
:100E5000DF936C017A018B01C0E0D0E0CE15DF0595
:100E600081F0D8016D918D01D601ED91FC91019039
:100E7000F081E02DC6010995892B11F02196EECF66
:100E80007E01C701DF91CF911F910F91FF90EF90ED
:100E9000DF90CF900895089580E090E008950E943B
:100EA0008E19833081F028F4813099F08230A1F0DE
:100EB00008958730A9F08830B9F08430D1F480915A
:100EC00080008F7D03C0809180008F7780938000A9
:100ED000089584B58F7702C084B58F7D84BD089551
:100EE0008091B0008F7703C08091B0008F7D809398
:100EF000B00008951F93CF93DF93282F30E0F901BE
:100F0000E952F24F8491F901ED53F24FD491F90176
:100F1000E155F24FC491CC23C1F0162F81110E94EC
:100F20005107EC2FF0E0EE0FFF1FEC52F54FA591AB
:100F3000B4919FB7F894111104C08C91D095D82327
:100F400002C0EC91DE2BDC939FBFDF91CF911F910C
:100F50000895CF93DF9390E0FC01ED53F24F24917D
:100F6000FC01E155F24F8491882361F190E0880FF4
:100F7000991FFC01E653F54FC591D491FC01EC5249
:100F8000F54FA591B491611109C09FB7F89488817C
:100F9000209582238883EC912E230BC0623061F46C
:100FA0009FB7F8948881322F309583238883EC9102
:100FB0002E2B2C939FBF06C08FB7F894E8812E2B61
:100FC00028838FBFDF91CF9108951F93CF93DF9335
:100FD000182FEB0161E00E94A907209711F460E04F
:100FE00004C0CF3FD10539F461E0812FDF91CF916B
:100FF0001F910C947A07E12FF0E0E952F24FE4914F
:10100000E330F9F048F4E130B9F0E230A1F584B50D
:10101000806284BDC8BD34C0E730E9F0E83019F122
:10102000E43049F580918000806280938000D09305
:101030008B00C0938A0024C084B5806884BDC7BD7E
:101040001FC080918000806880938000D0938900C9
:10105000C093880015C08091B00080688093B00074
:10106000C093B3000DC08091B00080628093B00047
:10107000C093B40005C0C038D1050CF0B5CFAFCFD8
:10108000DF91CF911F9108958E3008F08E508770B8
:10109000806480937C0080917A00806480937A00E1
:1010A00080917A0086FDFCCF8091780020917900B4
:1010B00090E0922B08953FB7F8948091570190915A
:1010C0005801A0915901B0915A0126B5A89B05C0BD
:1010D0002F3F19F00196A11DB11D3FBFBA2FA92FB7
:1010E000982F8827820F911DA11DB11DBC01CD0134
:1010F00042E0660F771F881F991F4A95D1F7089520
:101100008F929F92AF92BF92CF92DF92EF92FF9217
:101110006B017C010E945B084B015C01C114D1048E
:10112000E104F104F1F00E945B08DC01CB018819B5
:101130009909AA09BB09883E9340A105B10570F33E
:1011400021E0C21AD108E108F10888EE880E83E098
:10115000981EA11CB11CC114D104E104F10419F7BB
:10116000DDCFFF90EF90DF90CF90BF90AF909F903A
:101170008F9008951F920F920FB60F9211242F9304
:101180003F938F939F93AF93BF9380916001909112
:101190006101A0916201B09163013091560123E099
:1011A000230F2D3720F40196A11DB11D05C026E89F
:1011B000230F0296A11DB11D20935601809360015B
:1011C00090936101A0936201B093630180915701F4
:1011D00090915801A0915901B0915A010196A11D19
:1011E000B11D8093570190935801A0935901B0937A
:1011F0005A01BF91AF919F918F913F912F910F9085
:101200000FBE0F901F9018956115710579F0FB01C5
:1012100001900020E9F73197AF01461B570BDC0125
:10122000ED91FC910280F381E02D099480E090E043
:10123000089550E0DA01AA0FBB1FA80FB91F1F962F
:101240003C911F9750962C915097E32FF22FE60F69
:10125000F11DE60FF11D2591349190963C932E934C
:101260005F97F90165917491FC017481769F602DFF
:101270001124DC01A40FB51F91966C939197F9018D
:1012800085919491E92FF0E0862F90E0E817F90717
:1012900020F4F90185919491692F769F602D112496
:1012A00092966C9308951F920F920FB60F9211248D
:1012B0002F936F937F938F939F9360915C0166232D
:1012C00059F1809154018F5F8093540190915D0199
:1012D000891710F120915F0181E0282720935F0199
:1012E0001092540180915E01882369F08091000181
:1012F00093E4899F802D1124895B809300010E94D3
:10130000541990935B01222329F080915B01809313
:10131000B40002C080E0FBCF9F918F917F916F91CD
:101320002F910F900FBE0F901F901895FC01611127
:101330000DC0178A158A14A213A2108E10925B0199
:1013400010925C0110925F011092B4000895FC01AC
:1013500061110EC0178A158A14A213A2108E109262
:101360005B0110925C0110925F011092B400118237
:1013700008952F923F924F925F926F927F928F9239
:101380009F92AF92BF92CF92DF92EF92FF920F9314
:101390001F93CF93DF93EC0181E08093BA03109207
:1013A000B9031092B80310927C038093D203809308
:1013B000D303222423949EE3C92E9DE0D92E1CE062
:1013C00009E00E94E10C8823E1F3FE018491EAEF39
:1013D000FAE08490EBEFFAE0A490082C000C990856
:1013E000181419040CF0A5C01A140CF0A2C0F09047
:1013F000D2039A2D91330CF090E3682DF5E58F160A
:1014000091040CF064E5E090BE0387E0880E911C27
:1014100083E0959487948A95E1F770E024E631E0C3
:1014200081E04CEF5AE0A92E990FBB08E72FF0E0BE
:10143000EA15FB050CF07DC0FA019491F1E0FF1272
:1014400018C0FA01D9016894772477F8672C6922CB
:1014500019F06C90682A6C92769429F431969491E4
:101460006894772477F811966A2E621A661670F3DC
:1014700057C0F1101AC0682E6094FA01D90168941F
:10148000772477F8572C592219F05C9056205C92FB
:10149000769429F4319694916894772477F811968C
:1014A0005A2E521A561670F33BC0E3E0FE1221C0CA
:1014B000482E4094FA01D9016894662467F8512CAB
:1014C000762C792249F07C903E2C352430FE02C0E7
:1014D000782A01C074207C92669429F43196949104
:1014E0006894662467F853941196561648F3E224DC
:1014F00017C0FA01D9016894772477F8672C69221C
:1015000019F06C9068266C92769429F43196949137
:101510006894772477F811966A2E621A661670F32B
:10152000880F19F42C5A3F4F81E07F5F480D591DF9
:101530007DCF1092BB031093BC03CE010E94E0123A
:101540008091B603982F990F890F81958D5A8093BA
:10155000BB038091B703982F990F890F8195835D05
:101560008093BC038091D50384FF03C086EF9AE08B
:1015700002C082EF9AE00E94FF138091B603982F79
:10158000990F890F81958D5A8093BB038091BC037D
:101590008F5F8093BC0380918E03882319F08EEEB9
:1015A0009AE002C08AEE9AE00E94FF138091B6038F
:1015B000982F990F890F81958D5A8093BB03809145
:1015C000BC038F5F8093BC0386EE9AE00E94FF13FA
:1015D00080917A03813051F580918E038F5F609105
:1015E0008F0387FD09C0082E000C990B70E06F5F18
:1015F0007F4F0E946019682F60938E0360E089E836
:1016000093E00E94A709D0929703C092960310928C
:101610009C0310929B03F1E0F0938A0300939F03D5
:101620001092A2031092A4031092A6038091790352
:101630008130A9F08091D403482F50E060E070E041
:101640008090D5039090D603A090D703B090D80394
:1016500084169506A606B706D0F18F3FC1F18FEF2D
:101660008093D40360E089E893E00E94A70960E0DA
:1016700089E893E00E94A7098EED9AE09093970382
:101680008093960310929C0310929B0381E08093B9
:101690008A0399E090939F031092A2031092A403EF
:1016A0001092A60380937C03DF91CF911F910F913D
:1016B000FF90EF90DF90CF90BF90AF909F908F9072
:1016C0007F906F905F904F903F902F900895809102
:1016D0007B03813009F075CE0E940F1470CEFC019F
:1016E000643508F053C0403308F050C090A1742F07
:1016F000759575957595262F062E000C330B542F76
:1017000057709230A1F4F90184E57802E00DF11DE3
:101710001124EC59FE4F808190E0052E02C0959572
:1017200087950A94E2F78095982F91700AC09330BC
:1017300041F484858170462740954170841303C02D
:1017400014C0911112C084E57802200D311D1124BE
:10175000F901EC59FE4F81E090E001C0880F5A95E5
:10176000EAF780959081892310C084E57802200DE6
:10177000311D1124F901EC59FE4F81E090E001C0C8
:10178000880F5A95EAF79081892B80830895CF922C
:10179000DF92EF92FF920F931F93CF93DF937C0121
:1017A000D62EC22EC42F002E000C110B040F111DBB
:1017B00047FD1A958C2F0C2E000C990B8017910762
:1017C0006CF4D0E0DC1544F46D2D6D0F4C2FC70187
:1017D0000E946F0BDF5FF6CFCF5FECCFDF91CF9131
:1017E0001F910F91FF90EF90DF90CF9008956F922F
:1017F0007F928F929F92AF92BF92CF92DF92EF92A1
:10180000FF920F931F93CF93DF93EC016A3011F493
:101810002885A3C06D3009F4A7C0A98483E58A1583
:101820000CF485C0BA848FE28B150CF480C0D88488
:101830008C8190E00197D89E9001D99E300D1124A3
:10184000C9018A0D911DA7FC9A95181619060CF06E
:101850006EC02D818B2D0B2C000C990BD29E800D10
:10186000911D1124181619060CF061C088A09A2C3D
:10187000CA2CE62EF12CEC2DEA190E2E000CFF0BD3
:101880008C8190E0E817F9070CF050C00197E81739
:10189000F90779F0E89E9001E99E300DF89E300D31
:1018A0001124E20FF31F8E8D9F8DE80FF91F149105
:1018B00001C010E06B2C7B2C272D2B19022E000C65
:1018C000330B8D8190E0281739076CF510FF11C09C
:1018D00081E0D81206C0472D6C2DCE010E946F0BFF
:1018E0001EC00D2D2D2D462D692DCE010E94C70B3A
:1018F00016C089A198A1891791F088A381E0D81218
:1019000006C0472D6C2DCE010E946F0B07C00D2D18
:101910002D2D462D692DCE010E94C70B88A216954C
:1019200073946D0CC9CFC3949D0CA5CF88A2288554
:101930003C818985239F800D112489879F8199236C
:1019400099F0082E000C990B44E550E0239F4019B4
:1019500051091124481759073CF49D818A85299F14
:10196000800D11248A87198681E090E0DF91CF9164
:101970001F910F91FF90EF90DF90CF90BF90AF90AD
:101980009F908F907F906F900895EF92FF920F93AA
:101990001F93CF93DF938C01D62FF42EE22EC0E05D
:1019A000CE1544F44F2D4C0F6D2FC8010E946F0BC4
:1019B000CF5FF6CFDF91CF911F910F91FF90EF9006
:1019C00008954F925F926F927F928F929F92AF9203
:1019D000BF92CF92DF92EF92FF920F931F93CF931C
:1019E000DF9300D000D0CDB7DEB74091E403509133
:1019F000E5036091E6037091E7032FB7F8948091B7
:101A0000600190916101A0916201B09163012FBFCB
:101A1000481B590B6A0B7B0B8091E30390E0A0E01D
:101A2000B0E0C090DF03D090E003E090E103F090DD
:101A3000E20384179507A607B70730F4C114D10451
:101A4000E104F10409F0FEC2CD28CE28CF2809F028
:101A5000F7C280917B0381508E3FD0F580917A034D
:101A60008130B1F580918E038F5F60918F0387FD88
:101A700009C0082E000C990B70E06F5F7F4F0E9429
:101A80006019682F60938E0381E59DE09093E903D0
:101A90008093E80388E48093EA0360E089E893E0B8
:101AA0000E94A7098EE39DE090939703809396038D
:101AB00010929C0310929B0381E080938A0389E03B
:101AC00080939F031092A2031092A4031092A60386
:101AD00080917B0381508E3F70F480917903813037
:101AE00009F082C384E49DE09093E9038093E803C6
:101AF00088E48093EA0380E00E944F1380918A0378
:101B0000882309F4AEC080919E038111AAC0209160
:101B1000960330919703E0919B03F0919C03EE0FA5
:101B2000FF1FE20FF31F85919491009741F580917B
:101B30009A03882331F010929C0310929B03F901C1
:101B400015C010928A0380918903882391F080E068
:101B50000E944F13E0919B03F0919C03EE0FFF1F37
:101B60008091960390919703E80FF91F85919491C6
:101B700006C060E089E893E00E94960972C09C016B
:101B8000369527953695279580FF4BC0BC01F6E02A
:101B900076956795FA95E1F76F71892F8695869509
:101BA000869580512F702230F9F050F42223B1F045
:101BB000213069F540E089E893E00E94190927C0C7
:101BC0002330E1F0243019F590918D03969F602D1C
:101BD00011246093A6038093A70319C06B3008F00B
:101BE0006AE060939F0313C090918D03969F602DD0
:101BF00011246093A2038093A30309C090918D03E5
:101C0000969F602D11246093A4038093A503E09117
:101C10009B03F0919C033196F0939C03E0939B030C
:101C20009DCF2F7320939D0380918D03899F802DDD
:101C3000112480939E031092AE031092AD03109274
:101C4000AC0381E08093A00380935F011092A10315
:101C500080919B0390919C03019690939C038093A9
:101C60009B038091A003882309F4F3C080919E0315
:101C7000811106C060E089E893E00E949609E9C0FE
:101C8000815080939E038091AE03811148C02091C2
:101C9000AC033091AD032F5F3F4FC901880F991FEF
:101CA000E091A803F091A903E80FF91F65917491E1
:101CB000862F87708093AF03AB0163E056954795FD
:101CC0006A95E1F7CA0196958795972F969596950F
:101CD0009093B0038F7390918D03899F802D112471
:101CE0008093AE03417040935E013093AD03209327
:101CF000AC038091AA0390E02817390780F0209167
:101D0000AB03222339F0821B91099093AD0380939A
:101D1000AC0305C060E089E893E00E9496098091D9
:101D2000AE0381508093AE038091A10321E0280F80
:101D30002093A10340919D033091B003340F809113
:101D40009503380F30938B036091A403662371F0E1
:101D500070E0822F022E000C990B0E946019809176
:101D6000A503869F300D112430938B0380918B0344
:101D700090E0849664E270E00E94601980938B0387
:101D800030919F0330938C036091A203662381F00E
:101D9000062E000C770B822F022E000C990B0E944E
:101DA00060198091A303869F300D112430938C031A
:101DB0006091A6036623A1F0822F220F990B70E099
:101DC0000E946019CB0162E070E00E9460192091CE
:101DD000A70390918C03289F900D112490938C035E
:101DE0004F3351F080918C038A300CF089E087FDED
:101DF00080E080938C0302C010928C03F894E091F1
:101E00008B03F0E0E65EF24FE491E0935D013091E8
:101E10008C032091B1033203900111244091AF0350
:101E20004203C001439F900D112400908E0302C015
:101E3000880F991F0A94E2F797FF02C081589F4FBD
:101E4000880F892F881F990B80935C0180935B0119
:101E500078948091EA03882309F443C08C3020F4FD
:101E60003CE0381B398301C0198211E01093BA039A
:101E70001092D2031092D3038091B70303E0080FAE
:101E80004DE2481B5981450F24E560E082EB93E069
:101E90000E9456121093D2031093D3038091B7037C
:101EA00003E0080F4DE2481B8981480F24E560E0FC
:101EB00082EB93E00E94F01184E08093BB03809159
:101EC000B7039981981B915D9093BC038091E803BF
:101ED0009091E9030E94E0128091EA03815080937F
:101EE000EA038091800390918103892B09F480C0DB
:101EF000A1E0A093D2031092D3039091B60385E59D
:101F0000891B8093BB031092BC0380917D038130B9
:101F100009F451C030F090917C03853008F063C023
:101F20005EC060E089E893E00E94A709B1E0B09349
:101F3000BA03E8E9FBE0E491EF5FE093B603E9E977
:101F4000FBE0E491EF5FE093B7038AE99BE09093B5
:101F5000D1038093D00310928103109280031092DA
:101F6000B80328EA29830E94E10C8823E1F38AE878
:101F70009BE00E94E01260917E0370917F0380E0FD
:101F800090E04AE00E94011385E79BE00E94E01286
:101F9000698162956F7070E080E090E04AE00E9495
:101FA00001138AE69BE00E94E01280917903813060
:101FB00009F0FEC01DC08091D5039091D603A09179
:101FC000D703B091D8038F709927AA27BB2708970A
:101FD000A105B10510F487E009C088E707C099237F
:101FE00039F08B5F03C0992319F08FE20E944413EC
:101FF0000E94A5128091B80381110EC088EF91E074
:10200000E4E6F1E0DF019C011D9221503040E1F750
:102010001092BB031092BC030E945B086093DF0325
:102020007093E0038093E1039093E2032091DB033C
:102030003091DC03621B730B7093DA036093D90356
:1020400080E0D8C02FB7F894809160019091610131
:10205000A0916201B09163012FBF2091E303820F31
:10206000911DA11DB11D8093E4039093E503A093FE
:10207000E603B093E7038091D5039091D603A09136
:10208000D703B091D8030196A11DB11D8093D5034C
:102090009093D603A093D703B093D8031092DF0395
:1020A0001092E0031092E1031092E2030E945B0899
:1020B0006093DB037093DC038093DD039093DE0376
:1020C00080916503909166032FE0289FA001299FCE
:1020D000500D11245A83498385E10E944408A98147
:1020E000BA818A0F9B1F24E0969587952A95E1F780
:1020F000909366038093650320916403222309F47F
:102100004BC060916803262F30E040E050E0298307
:102110003A834B835C83C0906903D12CE12CF12C72
:1021200040916C0350916D034A01A12CB12C209178
:102130006A0330916B032901612C712C821793077C
:1021400028F09C014817590708F49A01C901A0E03A
:10215000B0E09C01AD012419350946095709698190
:102160007A818B819C816C197D098E099F090E945F
:102170004419A501940124193509460957090E94FB
:10218000BF17C20ED31EE41EF51EC09267036C2D4E
:1021900070E085E00E94E5070E94B41380918003FF
:1021A00090918103892B11F00E94441481E022C098
:1021B000B981B150B983B111D6CE60E070E085E04D
:1021C0000E94E50783B7817F846083BF83B7816006
:1021D00083BF83B7816083BF889583B78E7F83BFBA
:1021E00083B78E7F83BFBFCE893209F084CC0E9433
:1021F0000F1481CC0F900F900F900F90DF91CF9123
:102200001F910F91FF90EF90DF90CF90BF90AF9014
:102210009F908F907F906F905F904F9008958F92D6
:102220009F92AF92BF92CF92DF92EF92FF920F9365
:102230001F93CF93DF938C01F62EE42EC1E0D3E001
:102240008AEFB82E9EEFC92E822F8470A82E822F7F
:102250008270982E822F8870882E2170D22E8C2F1B
:10226000880F8F5FC80EAA2071F04E2D4D0F6F2D75
:102270006C0FC8010E946F0B4E2D4C0F6D2F6F0D10
:10228000C8010E946F0B992071F04E2D4D1B6F2DD0
:102290006C0FC8010E946F0B4E2D4C1B6D2F6F0DE4
:1022A000C8010E946F0B882071F04E2D4C0F6F2DCE
:1022B0006D1BC8010E946F0B4E2D4D0F6F2D6C1BB7
:1022C000C8010E946F0BD1100AC0CD17BCF4C7FC27
:1022D00004C0D150B394B394CB0CCF5FC0CF4E2D7C
:1022E0004C1B6F2D6D1BC8010E946F0B4E2D4D1B9B
:1022F0006F2D6C1BC8010E946F0BE7CFDF91CF9150
:102300001F910F91FF90EF90DF90CF90BF90AF9013
:102310009F908F9008957F928F929F92AF92BF92DD
:10232000CF92DF92EF92FF920F931F93CF93DF93A1
:102330006C01E62EB42E13E0100FD0E0C3E08AEF5C
:10234000982E9EEFF92E822F8170782E8824839408
:10235000800E2270A22EDF5F812F801BF80E772067
:1023600091F02C2F220F280D4B2D4C1B6D2F6E0D35
:10237000C6010E94C50C212F4B2D4D1B6C2F6E0DDD
:10238000C6010E94C50CA1100AC0DC17DCF4F7FCE2
:1023900004C0C15093949394F90C1E5FDCCF2C2F92
:1023A000220F280D4B2D4C1B6E2D6D1BC6010E945C
:1023B000C50C212F4B2D4D1B6E2D6C1BC6010E9491
:1023C000C50CE3CFDF91CF911F910F91FF90EF905C
:1023D000DF90CF90BF90AF909F908F907F900895A7
:1023E0009F92AF92BF92CF92DF92EF92FF920F93A4
:1023F0001F93CF93DF937C01C62FD42FB22E8AEF89
:10240000A82EA20E93E0D92ED60E10E01A1544F491
:102410006D2D610F4D2FC7010E946F0B1F5FF6CF0F
:102420001D2F100F99249A94910EC12CCA1444F4B4
:102430006D2D6C0D492DC7010E946F0BC394F6CF13
:102440000650DD5F202F4D2F6C2FC7010E94C50C59
:10245000CB0D6FEF6C0F202F4D2FC7010E94C50CC5
:1024600021E04D2F6D2DC7010E940F11C45022E0B5
:102470004D2F6C2FC7010E940F11DCEFD10F24E00C
:102480004D2F6C2FC7010E940F1128E04D2F6D2D8D
:10249000C701DF91CF911F910F91FF90EF90DF90D7
:1024A000CF90BF90AF909F900C940F11CF92DF927E
:1024B000EF92FF920F931F93CF93DF936C01F62E51
:1024C000C42F122FD02F83E0E82EE60E2AEF210F23
:1024D0006E2DC6010E94C70BD750CD5F6CEF6F0DFC
:1024E000610F0D2F21E04C2FC6010E948B1122E0BD
:1024F0004C2F6E2DC6010E948B11DF91CF911F9141
:102500000F91FF90EF90DF90CF900895CF93C82F59
:10251000F89460E08091C1030E947A078091C20321
:1025200018161CF460E00E947A07CEBD00000DB4BE
:1025300007FEFDCF8EB58091C20318161CF461E032
:102540000E947A077894CF9108950F931F93CF93A9
:102550008091BE038F5F8093BE0304E611E0C0E06C
:102560008C2F80640E94861280E80E94861261E0AF
:102570008091C1030E947A078091C20318161CF44F
:1025800060E00E947A07F80184E591919EBD000009
:102590000DB407FEFDCF9EB58150B9F78091C203FF
:1025A00018161CF461E00E947A07CF5F0C5A1F4F87
:1025B000C630B1F680E4CF911F910F910C94861232
:1025C0000F931F93CF93DF938C01C0E0D0E0F8010D
:1025D000EC0FFD1F6491662371F0E091B203F0915E
:1025E000B3030190F081E02D82EB93E00995892BF4
:1025F00011F02196ECCFCE01DF91CF911F910F9179
:1026000008958F929F92AF92BF920F931F93CF9393
:10261000DF93CDB7DEB7A1970FB6F894DEBF0FBE3C
:10262000CDBF19A2423008F44AE08E010F5D1F4F62
:10263000842E912CA12CB12CA50194010E94E917A4
:10264000E62FB901CA0101501109EA3014F4E05D26
:1026500001C0E95CD801EC93232B242B252B61F7D7
:10266000B80182EB93E00E940409A1960FB6F8949A
:10267000DEBF0FBECDBFDF91CF911F910F91BF90F5
:10268000AF909F908F900895E091B203F091B303C3
:102690000190F081E02D682F82EB93E00994CF92B6
:1026A000DF92EF92FF920F931F93CF93DF93082F48
:1026B00010E0E801CC59DC4F9DA1992309F44BC0EF
:1026C0009EA1911148C09EA59801220F331FA90118
:1026D0004C595C4F7A01FA0134A525A5E32FF22F5E
:1026E000E90FF11DE90FF11D259134912F3FFFEF07
:1026F0003F0711F41DA22FC039ABF801EE0FFF1FE9
:10270000E259FC4F3327220F331F05A0F6A1E02D1D
:10271000E20FF31FC590D49081111AC060E089E8E0
:1027200093E00E94A709F701D3AAC2AA000F111FC4
:10273000F801EA58FC4F16A215A281E08EA389E0A9
:102740008BAF1EAEFE01E05CFF4F1082329610820E
:102750008EA58F5F8EA7DF91CF911F910F91FF9074
:10276000EF90DF90CF900895DF92EF92FF920F935A
:102770001F93CF93DF93C4E6D3E00BE613E0EE2480
:10278000EA9462E08A850E94A9072A8530E0F9016F
:10279000E952F24F8491F901ED53F24FF490F901AF
:1027A000E155F24FD490DD2071F081110E94510764
:1027B000ED2DF0E0EE0FFF1FEB55F24FA591B49118
:1027C000EC91FE2299F489898F5F898B60E08A857C
:1027D0000E94A90721960C171D0799F6DF91CF914A
:1027E0001F910F91FF90EF90DF90089589898823C2
:1027F00089F38F3F11F4198AE9CFE98AE7CFCF93A4
:10280000DF930E94E012EC016AE471E082EB93E056
:102810000E9404098C0F9D1FDF91CF91089588EFCE
:1028200091E0E4E6F1E0DF019C011D92215030408F
:10283000E1F71092BB031092BC038DE79DE00E946C
:10284000E0120E94A5128CB583608CBD8DB58E7F81
:102850008DBD8DE491E0EEEFFFE309951092B80392
:1028600088E59DE00E94FF130E94A5120E94B41308
:1028700080917903813039F062E370E080E090E08C
:102880000E948008F3CF0895809188038F7169F5C5
:1028900084E10E944408BC01990F880B990B0E94A7
:1028A0004B1826EE3FE34EEC50E40E94AF180E9416
:1028B0001A189B0170937F0360937E03672B91F03E
:1028C00084E080937D03E0E8F3E080E04191519162
:1028D0002417350718F480937D0308958F5F8430A3
:1028E000A9F703C08FEF80937D03809188038F5FEA
:1028F000809388030895789484B5826084BD84B5FC
:10290000816084BD85B5826085BD85B5816085BDEA
:1029100080916E00816080936E00109281008091A2
:10292000810082608093810080918100816080932A
:102930008100809180008160809380008091B1004F
:1029400084608093B1008091B00081608093B0007A
:1029500080917A00846080937A0080917A0082600E
:1029600080937A0080917A00816080937A008091D0
:102970007A00806880937A001092C10082E380938D
:10298000E30381E090E0A0E0B0E08093DF03909368
:10299000E003A093E103B093E2038FEF8093D403AD
:1029A000E0E8F7E7259134912130304C09F049C037
:1029B000E6E9F7E7E491E093BD03E7E9F7E7E4919F
:1029C000E0936803E8E9F7E7E491E0936903E9E954
:1029D000F7E78591949190936B0380936A03EBE9F9
:1029E000F7E78591949190936D0380936C0387E052
:1029F00080938F03EEE9F7E7E491E0938E03EFE92C
:102A0000F7E7E491E093D403E0EAF7E78591949146
:102A10009093810380938003E2EAF7E78591949194
:102A20009093830380938203E4EAF7E7859194917E
:102A30009093850380938403E6EAF7E78591949168
:102A40002CC09CE39093BD031092680380936903AC
:102A500080E293E090936B0380936A0384ED93E0AC
:102A600090936D0380936C0387E080938F03809332
:102A70008E038CEA9DE090938103809380038EED1A
:102A80009DE0909383038093820384E79EE090937C
:102A90008503809384038CE39FE090938703809366
:102AA0008603C1E0C09364036FEF70E085E00E948D
:102AB000E50788E080936E0389E080936F0387E0E9
:102AC0008093700386E080937103D4E0D093720307
:102AD00082E08093730381E1809374030E94B413B6
:102AE0008CE39FE090937F0380937E03D0937D03DC
:102AF000C09388038BE08093C0038DE08093BF0375
:102B000080E18093C1038EE08093C3038FE08093C4
:102B1000C203C093BA03C093D2031092D303C093ED
:102B2000B903E8E9FBE0E491EF5FE093B603E9E97C
:102B3000FBE0E491EF5FE093B7038AE99BE09093B9
:102B4000D1038093D003CFB7F894809155018111C0
:102B500027C0E9EBFDE08491EDECFDE09491E82FD6
:102B6000F0E0EE0FFF1FE653F54FA591B491EC9105
:102B7000E92321F461E08AE00E947A0761E08AE0BB
:102B80000E94A9078CB580618CBD8CB580648CBD1A
:102B900061E08DE00E94A90761E08BE00E94A90737
:102BA000809155018F5F80935501CFBF8CB58F7D8C
:102BB0008CBD8CB58C7F81608CBD8DB581608DBDE9
:102BC0008CB58C608CBD61E08091C0030E94A90728
:102BD00061E08091BF030E94A90761E08091C10379
:102BE0000E94A9078091C30318161CF461E00E949B
:102BF000A9078091C20318161CF461E00E94A9077E
:102C00008091C303181674F460E00E947A076AE0AA
:102C100070E080E090E00E94800861E08091C30352
:102C20000E947A078091BF03082E000C990BFC01CB
:102C3000E155F24FE491F0E0EE0FFF1FEC52F54F3B
:102C4000259134913093C7032093C603FC01ED53C3
:102C5000F24FE491E093CD038091C003082E000C65
:102C6000990BFC01E155F24FE491F0E0EE0FFF1FEC
:102C7000EC52F54F259134913093C5032093C40352
:102C8000FC01ED53F24FE491E093CC038091C20339
:102C9000082E000C990BFC01E155F24FE491F0E095
:102CA000EE0FFF1FEC52F54F259134913093C9037D
:102CB0002093C803FC01ED53F24FE491E093CE035F
:102CC0008091C103082E000C990BFC01E155F24FD5
:102CD000E491F0E0EE0FFF1FEC52F54F2591349197
:102CE0003093CB032093CA03FC01ED53F24FE491E0
:102CF000E093CF0381E20E94861284E10E94861253
:102D00008091BD0387FF03C08FE78093BD0380914F
:102D1000BD0380680E94861280E20E9486128CE0C9
:102D20000E9486120E94A51281E080938D0384E0A8
:102D30008093B10380E699E0909399038093980380
:102D400040E060E089E893E00E94190961E070E0EA
:102D500083E00E94E5078091B100887F81608093C5
:102D6000B100F894109280001092810010928500BA
:102D70001092840088E191E090938900809388000C
:102D800080918100886080938100809181008160C2
:102D90008093810080916F00826080936F007894AF
:102DA0008091800390918103892B11F00E9444143B
:102DB00080917A03813019F410928E031FC08091A4
:102DC0007D038823C9F360E089E893E00E94A709A6
:102DD00084E699E0909397038093960310929C0366
:102DE00010929B0381E080938A0389E080939F0384
:102DF0001092A2031092A4031092A6038091D40310
:102E0000882321F082E49AE00E94B90980EA92E0E6
:102E1000A0E0B0E08093D5039093D603A093D703AE
:102E2000B093D80381E28093E303C1E0C0938D03A4
:102E300082E799E09093940380939303109289031F
:102E400060E089E893E00E94A709109292038DE464
:102E50009AE09093910380939003C09389031CE0C0
:102E6000C0E0D0E038E0D32E7C01CC24C3944EE106
:102E7000B42E58E1A52E0E94E10C882309F46EC0FF
:102E80008091D5039091D603A091D703B091D80338
:102E9000B095A095909581959F4FAF4FBF4F22E081
:102EA000B695A795979587952A95D1F78093BB03FB
:102EB000D092BC036DE071E082EB93E00E940409C4
:102EC000809189038823B1F009E023E44FE069E0B1
:102ED00082EB93E00E94F01180918C038823E1F053
:102EE00060918B03675F29E04FE082EB93E00E94E3
:102EF000561212C0B092BB03A092BC0361E371E012
:102F000082EB93E00E9404091093BB036AE371E033
:102F100082EB93E00E94040980917B038130F1F4FD
:102F20001092890360E089E893E00E94A7098091EC
:102F3000D403882321F08FEB9AE00E94B909109204
:102F4000890360E089E893E00E94A7091092920348
:102F5000F0929103E0929003C0928903209709F4C4
:102F60008ACF0E94000087CF1092B5031092B4035D
:102F700085E091E09093B3038093B2030895052E0A
:102F800097FB1EF400940E94D61757FD07D00E94AD
:102F9000E91707FC03D04EF40C94D61750954095D2
:102FA000309521953F4F4F4F5F4F089590958095F5
:102FB000709561957F4F8F4F9F4F08950E940B181A
:102FC000A59F900DB49F900DA49F800D911D11247D
:102FD0000895A1E21A2EAA1BBB1BFD010DC0AA1F5A
:102FE000BB1FEE1FFF1FA217B307E407F50720F072
:102FF000A21BB30BE40BF50B661F771F881F991FED
:103000001A9469F760957095809590959B01AC0135
:10301000BD01CF010895A29FB001B39FC001A39F3E
:10302000700D811D1124911DB29F700D811D112401
:10303000911D08950E948E1888F09F5798F0B92F1F
:103040009927B751B0F0E1F0660F771F881F991FDD
:103050001AF0BA95C9F714C0B13091F00E94A818BF
:10306000B1E008950C94A818672F782F8827B85FCF
:1030700039F0B93FCCF3869577956795B395D9F735
:103080003EF490958095709561957F4F8F4F9F4F3F
:103090000895E89409C097FB3EF49095809570954B
:1030A00061957F4F8F4F9F4F9923A9F0F92F96E994
:1030B000BB279395F695879577956795B795F11109
:1030C000F8CFFAF4BB0F11F460FF1BC06F5F7F4FA6
:1030D0008F4F9F4F16C0882311F096E911C07723B8
:1030E00021F09EE8872F762F05C0662371F096E8C1
:1030F000862F70E060E02AF09A95660F771F881F90
:10310000DAF7880F9695879597F9089557FD9058A7
:10311000440F551F59F05F3F71F04795880F97FB9B
:10312000991F61F09F3F79F0879508951216130655
:103130001406551FF2CF4695F1DF08C01616170684
:103140001806991FF1CF86957105610508940895B9
:10315000E894BB2766277727CB0197F908950E944B
:10316000C2180C9433190E94251938F00E942C19AA
:1031700020F0952311F00C941C190C9422191124A1
:103180000C94A9180E94861870F3959FC1F3950FAF
:1031900050E0551F629FF001729FBB27F00DB11DDB
:1031A000639FAA27F00DB11DAA1F649F6627B00D6B
:1031B000A11D661F829F2227B00DA11D621F739F54
:1031C000B00DA11D621F839FA00D611D221F749F62
:1031D0003327A00D611D231F849F600D211D822FA9
:1031E000762F6A2F11249F5750409AF0F1F08823D0
:1031F0004AF0EE0FFF1FBB1F661F771F881F9150FD
:103200005040A9F79E3F510580F00C941C190C9476
:10321000A9185F3FE4F3983ED4F3869577956795B8
:10322000B795F795E7959F5FC1F7FE2B880F911D26
:103230009695879597F9089597F99F6780E870E0CC
:1032400060E008959FEF80EC089500240A9416161C
:10325000170618060906089500240A941216130684
:10326000140605060895092E0394000C11F4882312
:1032700052F0BB0F40F4BF2B11F460FF04C06F5F2E
:103280007F4F8F4F9F4F0895DB018F939F930E9435
:10329000DE17BF91AF91A29F800D911DA39F900D4E
:1032A000B29F900D11240895991B79E004C0991FD5
:1032B000961708F0961B881F7A95C9F78095089590
:1032C00097FB072E16F4009407D077FD09D00E94D3
:1032D000741907FC05D03EF4909581959F4F089591
:1032E000709561957F4F0895AA1BBB1B51E107C0E4
:1032F000AA1FBB1FA617B70710F0A61BB70B881F86
:10330000991F5A95A9F780959095BC01CD01089514
:10331000EE0FFF1F0590F491E02D099481E090E0FD
:0A332000F8940C949319F894FFCF71
:10332A000100000000F70B21074C074B074D75738E
:10333A0069633A20546865204F7468657220446155
:10334A007973202D20436F64653A20526F646F743D
:10335A00005448414E4B530A0A00505245535320D9
:10336A001720544F2045584954000D0A004C4F412C
:04337A004445520074
:00000001FF
