:100000000C9465000C948D000C948D000C948D0064
:100010000C948D000C948D000C948D000C948D002C
:100020000C948D000C948D000C948D000C948D001C
:100030000C948D000C948D000C948D000C948D000C
:100040000C94EF0F0C948D000C94250D0C94FF0C68
:100050000C948D000C948D000C948D000C948D00EC
:100060000C948D000C948D007C3C3E5E2B3D3F2F0C
:100070005B5D3B2C2A225C000000000800020100AE
:100080000003040700000000000000000000000062
:10009000250028002B0000000000240027002A0073
:1000A000040404040404040402020202020203031E
:1000B0000303030301020408102040800102040826
:1000C0001020010204081020A11211241FBECFEF3E
:1000D000D8E0DEBFCDBF24E0AAE7B1E001C01D92A9
:1000E000A937B207E1F711E0A0E0B1E0E4EBFAE2F2
:1000F00002C005900D92AA37B107D9F710E0C5E606
:10010000D0E004C02197FE010E943A13C436D10703
:10011000C9F70E9446100C9458150C940000FC017D
:10012000918D228D892F90E0805C9F4F821B9109D9
:100130008F739927089580E090E0892B29F00E9421
:10014000860C81110C9400000895DC015996ED9104
:10015000FC915A973097B9F083899489A589B6891B
:100160004285538564857585841B950BA60BB70B5B
:10017000811520E89207A105B10538F08FEF9FE7C0
:10018000A0E0B0E0089580E090E00895CF93DF9381
:100190001F92CDB7DEB76983DC01ED91FC9102803F
:1001A000F381E02D41E050E0BE016F5F7F4F099584
:1001B0000F90DF91CF910895089580E090E0089529
:1001C000FC01848DDF01A80FB11DA35ABF4F2C91F4
:1001D000848D90E001968F739927848FA689B789C3
:1001E0002C93A089B1898C91837080648C93938DBA
:1001F000848D981306C00288F389E02D80818F7D5D
:10020000808308958FB7F89480917B018FBF089504
:1002100061E0FC0184810E94960F80917A01811136
:1002200010927A0108958EBD00000DB407FEFDCF37
:100230008EB508958FEF0C9413010F931F93CF93F6
:10024000DF93EB010E94E30F8B010E941A018F3FA5
:1002500049F00E94E30F601B710B6C177D07A8F338
:1002600080E001C081E0DF91CF911F910F9108954F
:10027000CF93DF93EC018E81882389F08F8198855D
:100280009C012F5F3F4F38872F838230924018F4B4
:100290000E941A01F3CFCE010E9408011E82DF9155
:1002A000CF9108958CBD9DBD0895CF93DF93EC0150
:1002B00080917A01811109C081E080937A01809157
:1002C0002104909122040E94520160E08C81DF9110
:1002D000CF910C94960F8F929F92AF92BF92FF9204
:1002E0000F931F93CF93DF93EC01F62E49015A0130
:1002F0000E943801CE010E9455016CE271E0CE01EE
:100300000E941D018F2D80640E94130108E110E0FE
:10031000D501C401002E04C0B695A7959795879581
:100320000A94D2F70E94130108501109083F8FEF79
:10033000180771F7FF2029F088E0F81204C087E859
:1003400003C085E901C08FEF0E94130110E00E94F5
:100350001A018A8787FF04C01F3F11F01F5FF7CF84
:10036000DF91CF911F910F91FF90BF90AF909F9021
:100370008F900895AF92BF92CF92DF92EF92FF924B
:100380000F931F93CF93DF93EC016901C801820F94
:10039000931F8130924008F070C08E81882371F0E5
:1003A00088819981AA81BB8184179507A607B70721
:1003B00029F48F819885C816D906B0F548835983EA
:1003C0006A837B838B85833039F089E0440F551F26
:1003D000661F771F8A95D1F79A01AB0161E1CE01C3
:1003E0000E946B01882319F083E08D8346C00E9430
:1003F000E30F5B010E941A018A878F3F49F40E9434
:10040000E30F6A197B096D327140A0F38FE003C0DE
:100410008E3F31F08DE08D83CE010E9408012DC00A
:1004200018861F8281E08E838F8198858C159D05AB
:1004300040F40E941A018F819885019698878F83D6
:10044000F3CF6701E00EF11EEC14FD0431F00E94C1
:100450001A01F60181936F01F7CF8F819885080FFC
:10046000191F18870F838985882319F001151240F9
:1004700048F0CE010E94380105C0CE010E9408015B
:1004800080E001C081E0DF91CF911F910F91FF903B
:10049000EF90DF90CF90BF90AF900895EF92FF92D2
:1004A0000F931F93CF93DF93EC0179014115510511
:1004B0006105710511F482E13CC08B85833039F010
:1004C00089E0440F551F661F771F8A95D1F79A015F
:1004D000AB0168E1CE010E946B01882311F084E03A
:1004E00028C08EEF0E94130187018EEFF81AF801E1
:1004F00081918F010E941301E016F106C1F78FEF81
:100500000E9413018FEF0E9413010E941A018A8733
:100510008F71853031F081E18D83CE010E94080119
:1005200009C068E572E0CE010E941D01811107C07B
:1005300085E18D83CE010E94080180E014C020E097
:1005400030E0A9016DE0CE010E946B01811109C06C
:100550000E941A01811105C0CE010E94080181E0AC
:1005600002C084E1E6CFDF91CF911F910F91FF9000
:10057000EF90089580917C018823A9F140910001BA
:1005800050910101609102017091030122E831E074
:1005900080918203909183030E944E02811102C0D8
:1005A00080E0089540917D0150917E0160917F012E
:1005B00070918001411551056105710591F022E8A6
:1005C00031E080918203909183030E944E02882340
:1005D00039F310927D0110927E0110927F011092EA
:1005E000800110927C0181E008958F929F92AF92DA
:1005F000BF92EF92FF920F931F93CF934B015C0139
:10060000C42F8091000190910101A0910201B0914D
:10061000030188159905AA05BB0501F10E94BA02DC
:10062000811102C080E020C082E8E82E81E0F82E2F
:1006300000E012E020E030E0B501A40180918203E7
:10064000909183030E94BA01882361F38092000194
:1006500090920101A0920201B092030180917C016D
:10066000C82BC0937C0181E0CF911F910F91FF9027
:10067000EF90BF90AF909F908F9008954F925F92B0
:100680006F927F928F929F92AF92BF92CF92DF92A2
:10069000EF92FF920F931F93CF93DF93EC014230C1
:1006A00051056105710510F480E078C089859A854F
:1006B000AB85BC850196A11DB11D84179507A607C2
:1006C000B70790F3CB88DC88ED88FE888F8980316E
:1006D00029F4BB27A72F962F852F09C0DB01CA015C
:1006E000E7E0B695A79597958795EA95D1F74801E4
:1006F00059012A013B01C80ED91EEA1EFB1E80913A
:10070000000190910101A0910201B0910301C8166E
:10071000D906EA06FB0681F48F898031A9F4B3017A
:10072000A201552766277727440F551FFA01EE5778
:10073000FE4F9182808219C040E0C701B6010E943D
:10074000F5028111E9CFB0CFB301A2014F77552750
:1007500066277727440F551F440F551FFA01EE57A0
:10076000FE4F80829182A282B38280917C0181605F
:1007700080937C018A89823080F08D819E81AF8157
:10078000B885C80ED91EEA1EFB1EC0927D01D0920C
:100790007E01E0927F01F092800181E0DF91CF91B4
:1007A0001F910F91FF90EF90DF90CF90BF90AF908F
:1007B0009F908F907F906F905F904F9008958F9251
:1007C0009F92AF92BF92CF92DF92EF92FF920F93E0
:1007D0001F93CF93DF93FC0181859285A385B48518
:1007E0000196A11DB11D84179507A607B70710F440
:1007F00080E05BC083889488A588B688878980312B
:1008000029F4BB27A72F962F852F09C0DB01CA012A
:10081000C7E0B695A79597958795CA95D1F7E90151
:100820006A017B018F01BC01CD01680D791D8A1D14
:100830009B1D8090000190900101A0900201B0905A
:100840000301681579058A059B0591F4F8018789EC
:100850008031A1F4DD24EE24FF24C601880F991F06
:10086000FC01EE57FE4F80819181A0E0B0E018C0FE
:1008700040E00E94F5028111E9CFBACFE894C7F8B1
:10088000DD24EE24FF24C601880F991F880F991FCD
:10089000FC01EE57FE4F80819181A281B381BF7030
:1008A00088839983AA83BB8381E0DF91CF911F91D5
:1008B0000F91FF90EF90DF90CF90BF90AF909F90FF
:1008C0008F9008958F929F92AF92BF92CF92DF92B6
:1008D000EF92FF920F931F93CF93DF93EC018D81E3
:1008E000811102C080E078C00B891C892D893E8966
:1008F0000417150726073707A8F36A017B01823022
:1009000029F4CA86DB86EC86FD860DC0C114D104AD
:10091000E104F10451F41E821F82188619861A869A
:100920001B861C861D8681E057C08A849B84AC840C
:10093000BD84EB8DFC8D258530E0275F3F4FB501F1
:10094000A4014150510961097109022E04C0769534
:100950006795579547950A94D2F7D701C601019735
:10096000A109B10904C0B695A795979587952A95D1
:10097000D2F784179507A607B70720F089288A2899
:100980008B2871F44F89588D698D7A8D4E835F83E2
:10099000688779874C015D018E010A5F1F4F16C081
:1009A000841B950BA60BB70BF5CF4E815F81688535
:1009B000798598018B8D9C8D0E94DF0391E0891AC7
:1009C0009108A108B108882309F48CCF81149104FF
:1009D000A104B10451F795CFDF91CF911F910F91F1
:1009E000FF90EF90DF90CF90BF90AF909F908F904F
:1009F00008953F924F925F926F927F928F929F9253
:100A0000AF92BF92CF92DF92EF92FF920F931F931C
:100A1000CF93DF93CDB7DEB72C970FB6F894DEBF38
:100A20000FBECDBF5C01DC015B968D909C905C9706
:100A30001696CD90DD90ED90FC901997C114D104DD
:100A4000E104F10439F0BFEFCB1ADB0AEB0AFB0A31
:100A5000312C07C0F401C080D180E280F3803324C0
:100A60003394F40181859285A385B4859C01AD0101
:100A70002F5F3F4F4F4F5F4F29873A874B875C87E8
:100A8000260137011D821E821F821886F40181858E
:100A90009285A385B4852D813E814F815885281785
:100AA00039074A075B0708F063C089859A85AB85DB
:100AB000BC858C159D05AE05BF0550F482E0C82E9F
:100AC000D12CE12CF12C92E0492E512C612C712C6F
:100AD0009E012F5F3F4FB701A601C4010E94DF03B3
:100AE000882309F445C089819A81AB81BC81892B17
:100AF0008A2B8B2B41F0260137019FEF491A590AA7
:100B0000690A790A05C0C414D504E604F70491F013
:100B10002D813E814F8158852F5F3F4F4F4F5F4F53
:100B20002D833E834F8358873FEFC31AD30AE30ACE
:100B3000F30AACCF0FEF1FEF2FEF3FE0B301A2019D
:100B4000C4010E943E03882399F0D50116964D9169
:100B50005D916D917C911997411551056105710564
:100B600049F093018201C4010E943E03811102C039
:100B700080E02AC0D50116964D925D926D927C92CE
:100B80001997332051F0D301C2010196A11DB11D67
:100B9000F40180839183A283B383F5018789908DCB
:100BA000A18DB28D892B8A2B8B2B69F4D501579699
:100BB0004D925D926D927C925A9714968C911497F7
:100BC000806814968C9381E02C960FB6F894DEBF63
:100BD0000FBECDBFDF91CF911F910F91FF90EF908E
:100BE000DF90CF90BF90AF909F908F907F906F904D
:100BF0005F904F903F9008954F925F926F927F92D7
:100C0000AF92BF92CF92DF92EF92FF920F931F931A
:100C1000CF93DF931F92CDB7DEB7FC01258122234E
:100C200009F4C1C0848180FFBEC083899489A589ED
:100C3000B689428453846484758484159505A60519
:100C4000B70509F4B0C06F015201F1E0BF22D6012F
:100C50005B968D919C915C97B301A20139E07695EA
:100C60006795579547953A95D1F7223071F4FC0175
:100C7000828D938DA48DB58D8A019B01080F191F5C
:100C80002A1F3B1FC901B8014AC0DC0114961C9100
:100C900011501423A114B104F9F411111DC04528F9
:100CA0004628472851F4F6018789908DA18DB28D91
:100CB00086839783A087B1870FC0D60116964D9182
:100CC0005D916D917C91199796012A5F3F4F0E942B
:100CD000DF03882309F467C0F601238D348D8681F4
:100CE0009781A085B1850297A109B109AC01BD0129
:100CF000F901058404C0440F551F661F771F0A942D
:100D0000D2F786859785A089B189840F951FA61F84
:100D1000B71FBC01CD01610F711D811D911DD60151
:100D200014962C9126FF0DC04090000150900101B7
:100D30006090020170900301461657066806790616
:100D400099F440E00E94F502882369F1F501EE571D
:100D5000FE4FDE0111969F012F5F3F4F2E173F0779
:100D600099F081918D93FACFFE0131967F0101E0D8
:100D700010E09501AB01BC01809182039091830347
:100D80000E94BA01882379F0F60182859385A485B3
:100D9000B5850196A11DB11D82879387A487B5876C
:100DA000898190E002C08FEF9FEF0F90DF91CF918C
:100DB0001F910F91FF90EF90DF90CF90BF90AF9079
:100DC0007F906F905F904F900895FC01818D928D80
:100DD000009711F00C94FC058FEF9FEF08950F938F
:100DE0001F93CF93DF93FC01818D928D0097B9F013
:100DF000EF010E94FC058C010F3F8FEF180791F067
:100E0000898D9A8DFC014285538564857585415095
:100E10005109610971090E946204C80105C080E09E
:100E200090E002C08FEF9FEFDF91CF911F910F9164
:100E30000895CF93DF93EC018D81882379F18C8124
:100E400087FF28C06E857F858889998941E00E9447
:100E5000F502882319F1EA8980E2E89FF001112464
:100E6000EE57FE4F3097D1F08D81823040F48B8960
:100E70009C89AD89BE89848F958FA68FB78F8F8906
:100E8000988DA98DBA8D938F828FB58BA48B8C8111
:100E90008F778C83DF91CF910C94BA0280E0DF9141
:100EA000CF9108958F929F92AF92BF92CF92DF928F
:100EB000EF92FF920F931F93CF93DF9300D000D058
:100EC000CDB7DEB77C0180E2689FF0011124EE57B8
:100ED000FE4F9385917121F0842F827409F08FC0A9
:100EE000142FD70152966C93529740910001509164
:100EF000010160910201709103011E964D935D9373
:100F00006D937C9351974489558960E070E0BA01F4
:100F100055274427828D938DA0E0B0E0482B592BB4
:100F20006A2B7B2BD70157964D935D936D937C93E2
:100F30005A978385887159F4848D958DA68DB78DC8
:100F4000F701838B948BA58BB68B81E012C0803127
:100F500009F055C097012D5E3F4FD7015B968D91EB
:100F60009C915C970E948C0D882309F448C084E012
:100F7000F7018583812F8F70D70114968C93149776
:100F8000F70116821782108611861A961D921D92FD
:100F90001D921C921D9716FF34C015968C918130BE
:100FA00071F511FF2CC0F701438954896589768951
:100FB000452B462B472B09F461C040E050E0BA01B5
:100FC000C7010E9462048823D1F0F7018788908CC2
:100FD000A18CB28CC38CD48C82E090E0A0E0B0E015
:100FE000F60180839183A283B3839E012F5F3F4FDD
:100FF000B501A401C6010E94DF03811104C080E095
:101000003DC081E03BC000E010E09801B501A401C3
:10101000C6010E943E03882391F389809A80AB80A9
:10102000BC80D60157968C91803129F088EF9FEFD4
:10103000AFEFBFE004C088EF9FEFA0E0B0E08816FC
:101040009906AA06BB0688F2D70157961D921D92F3
:101050001D921C925A97F701138A148A158A168AD0
:10106000848180688483C7010E941907882339F22C
:1010700040E050E0BA01C7010E9462040F900F9057
:101080000F900F90DF91CF911F910F91FF90EF90F4
:10109000DF90CF90BF90AF909F908F9008952F9248
:1010A0003F924F925F926F927F928F929F92AF92F8
:1010B000BF92CF92DF92EF92FF920F931F93CF9345
:1010C000DF93CDB7DEB72B970FB6F894DEBF0FBE18
:1010D000CDBF7C01FE013196CE010C966F0130E24E
:1010E0003193E817F907E1F7DA0130E087E09D91E5
:1010F000992331F19E3231F48A3009F46BC138E022
:101100008AE0F5CFE8E6F0E04491442321F03196FF
:101110009413FACF5FC1831708F45CC14FED490FF8
:101120004E3508F057C141E0430FF601E30FF11DC2
:101130003FE9390F3A3108F490529083342FD7CFDA
:101140008981803209F446C1322E8B01DB015B9626
:101150008D919C915C97F701948F838F16961D92C9
:101160001D921D921C921997FB01128613861486FC
:101170001586B12CF80182859385A485B5854389B0
:1011800054896589768984179507A607B70708F0FB
:101190005BC025E0B695A795979587952A95D1F7D9
:1011A000F82FFF70AF2ED80115968C91823008F47D
:1011B00011C1C8010E94FC0597FD0CC1F801828590
:1011C0009385A485B5854F96A11DB11D8287938710
:1011D000A487B587F0E2AF9EB00111246E577E4F11
:1011E0006115710509F4F6C0DB018C91882319F0B3
:1011F000853EC1F4F1C0B1100EC0F701A28A809102
:10120000000190910101A0910201B0910301868734
:101210009787A08BB18BDB018C91882399F0BB243D
:10122000B394A8CF4BE050E0C6010E942C15892B47
:1012300009F0A0CF832D8073803309F4CBC0432DF8
:101240006A2DC4C0BB24B394832D8271823109F00E
:10125000C1C0BB20C1F0F70166857785808991897F
:1012600041E00E94F502882309F4B4C0D7015296E8
:101270008C91B0E28B9FC00111248E579E4F009736
:1012800009F078C0A7C0F8018581823009F4A2C0B6
:10129000C8010E94F904882309F49CC0D8015B9618
:1012A000ED91FC915C9716968D909D90AD90BC90C1
:1012B0001997B2E08B1A9108A108B108058404C0FF
:1012C000880C991CAA1CBB1C0A94D2F786859785AA
:1012D000A089B189880E991EAA1EBB1E2480E1E058
:1012E0008E1A9108A108B108222009F124013501C4
:1012F000420C511C611C711C0E94BA02882309F423
:1013000069C0E2E8F1E0119223E0E238F207D9F790
:10131000409200015092010160920201709203011B
:1013200080917C01816080937C012A94DDCFD8017B
:101330005B96ED91FC915C9780E092E0A0E0B0E0DC
:10134000058404C0880F991FAA1FBB1F0A94D2F7F7
:10135000F8014389548965897689840F951FA61FF2
:10136000B71F838B948BA58BB68BD70152961C929B
:1013700082E891E020E2FC0111922A95E9F72BE046
:10138000F601DC0101900D922A95E1F721E238E2A5
:10139000DC0151963C932E93509740E058E01F9605
:1013A0005C934E931E9753963C932E935297599667
:1013B0003C932E93589757965C934E9356970E9462
:1013C000BA02882339F0432DF7016289C7010E94D0
:1013D000520705C080E003C0B11021CF0ECF2B967D
:1013E0000FB6F894DEBF0FBECDBFDF91CF911F9136
:1013F0000F91FF90EF90DF90CF90BF90AF909F90B4
:101400008F907F906F905F904F903F902F900895B6
:10141000CF93DF93EC010E941907882311F01D82FE
:1014200081E0DF91CF910895FC01818D928D00972D
:1014300011F00C94190708952F923F924F925F92EA
:101440006F927F928F929F92AF92BF92CF92DF92D4
:10145000EF92FF920F931F93CF93DF9300D000D0B2
:10146000CDB7DEB78C015B011A01DC0115968C91BA
:1014700015978130C9F414968C9181FF15C082FFB5
:101480001DC0F801438954896589768982859385D1
:10149000A485B58584179507A607B70779F0C80115
:1014A0000E94620481110AC081E090E0D801139685
:1014B0009C938E93129780E090E036C1610183C0C7
:1014C0005B968D919C915C97FC0174802FEF270DAA
:1014D0002A013B0139E076946794579447943A95F2
:1014E000D1F7722E74207A01F1E0FF22772009F4FF
:1014F00076C080E092E08E199F0946018C159D050B
:1015000008F44C01D8015B962D913C915C9716969E
:101510008D919D910D90BC91A02D0297A109B109CB
:10152000F901058404C0880F991FAA1FBB1F0A94E4
:10153000D2F74685578560897189840F951FA61F4C
:10154000B71F9C01AD01270D311D411D511D290102
:101550003A01811432E0930609F088C080910001BD
:1015600090910101A0910201B09103014816590622
:101570006A067B0659F48FEF9FEFDC018093000130
:1015800090930101A0930201B09303019501B3016F
:10159000A20180918203909183030E944E028823CE
:1015A00009F482CF9EEFB91AC818D908F8018285CC
:1015B0009385A485B585880D991DA11DB11D8287D0
:1015C0009387A487B587D8011A964D915D916D9147
:1015D0007C911D97C114D10409F072CF87C0E1142A
:1015E000F10409F086CF16964D915D916D917C9135
:1015F0001997411551056105710559F457968D915B
:101600009D910D90BC91A02D0097A105B10541F5CC
:1016100021C09E012F5F3F4F0E94DF03882309F402
:101620004BCF89819A81AB81BC81F801238D348DA8
:10163000F9012789203129F048EF5FEF6FEF7FE054
:1016400004C048EF5FEF60E070E084179507A607DD
:10165000B70730F0C8010E94F90481114ACF24CFA6
:10166000F80186839783A087B18743CFE114F10403
:1016700029F5D8011A964D915D916D917C911D9738
:1016800053968D919D910D90BC91A02D48175907AF
:101690006A077B0798F00E94BA02882309F404CFF6
:1016A0004092000150920101609202017092030188
:1016B00080917C01816080937C0108C041E0C3017E
:1016C000B2010E94F502882309F4EECED501F7019C
:1016D000EE57FE4F9F01280D391D2E173F0719F0B9
:1016E0008D918193FACFA80CB91C5ECFF801838944
:1016F0009489A589B68984179507A607B70738F492
:10170000438B548B658B768B848180688483F8014E
:10171000848183FD02C0C10107C0C8010E9419076E
:10172000882309F4C1CEF7CF0F900F900F900F9040
:10173000DF91CF911F910F91FF90EF90DF90CF90AD
:10174000BF90AF909F908F907F906F905F904F90E1
:101750003F902F900895CF93DF931F92CDB7DEB7C0
:10176000698341E050E0BE016F5F7F4F0E941C0A19
:101770000F90DF91CF910895CF93DF93EC01898D86
:101780009A8D009739F481E090E09B838A8380E012
:1017900090E00BC0FC01138212820E941C0AE98DAA
:1017A000FA8D22813381232B71F7DF91CF91089538
:1017B000FC01DB0112968D919C9113979383828398
:1017C00084E491E09183808314968C9114978483B0
:1017D00015968C911597858316964D915D916D9117
:1017E0007C91199746835783608771871A964D912C
:1017F0005D916D917C911D974287538764877587B2
:101800001E964D915D916D917C91519746875787BA
:10181000608B718B52968C915297828B53964D911F
:101820005D916D917C915697438B548B658B768B34
:1018300057964D915D916D917C915A97478B508F42
:10184000618F728F5B968D919C915C97948F838F43
:101850000895CF92DF92EF92FF920F931F93CF9351
:10186000DF936C017A018B01C0E0D0E0CE15DF057B
:1018700081F0D8016D918D01D601ED91FC9101901F
:10188000F081E02DC6010995892B11F02196EECF4C
:101890007E01C701DF91CF911F910F91FF90EF90D3
:1018A000DF90CF900895FC01538D448D252F30E0BB
:1018B000842F90E0821B930B541710F0CF9608955D
:1018C00001970895FC01918D828D981761F0828DAA
:1018D000DF01A80FB11D5D968C91928D9F5F9F7364
:1018E000928F90E008958FEF9FEF0895FC01918D06
:1018F000828D981731F0828DE80FF11D858D90E073
:1019000008958FEF9FEF08950E94271584E893E0D4
:101910000E948F0021E0892B09F420E0822F089596
:10192000EF92FF920F931F93CF93DF93EC0181E02F
:10193000888F9B8D8C8D981305C0E889F9898081EB
:1019400085FD26C0F62E0B8D10E00F5F1F4F0F7325
:101950001127E02E8C8DE8120CC00FB607FCFACFD1
:10196000E889F989808185FFF5CFCE010E94E000EA
:10197000F1CF8B8DFE01E80FF11DE35AFF4FF0828E
:101980009FB7F8940B8FEA89FB89808180620AC037
:101990009FB7F894EE89FF896083E889F98980818F
:1019A0008370806480839FBF81E090E0DF91CF915E
:1019B0001F910F91FF90EF900895CF93DF93EC016B
:1019C000888D8823C9F0EA89FB89808185FD05C05F
:1019D000A889B9898C9186FD0FC00FB607FCF5CF99
:1019E000808185FFF2CFA889B9898C9185FFEDCFE1
:1019F000CE010E94E000E7CFDF91CF9108951F92C2
:101A00000F920FB60F9211242F933F934F935F9332
:101A10006F937F938F939F93AF93BF93EF93FF93B6
:101A200084E893E00E94E000FF91EF91BF91AF91B5
:101A30009F918F917F916F915F914F913F912F91E6
:101A40000F900FBE0F901F9018951F920F920FB618
:101A50000F9211242F938F939F93EF93FF93E09115
:101A60009403F09195038081E0919A03F0919B0398
:101A700082FD12C0908180919D038F5F8F732091B2
:101A80009E03821751F0E0919D03F0E0EC57FC4F6C
:101A9000958F80939D0301C08081FF91EF919F916D
:101AA0008F912F910F900FBE0F901F901895EF926E
:101AB000FF920F931F93CF93DF93EC017B018A0179
:101AC0001B821A8288EE93E0A0E0B0E08C839D83B5
:101AD000AE83BF838EE091E0998388838DE190E0AF
:101AE0000E9440139A8F898F009779F02DE1F701BA
:101AF000DC0101900D922A95E1F74CE050E0B8012D
:101B0000CE010C960E944915188EDF91CF911F913E
:101B10000F91FF90EF9008954F925F926F927F9296
:101B2000AF92BF92CF92DF92EF92FF920F931F93EB
:101B3000CF93DF9300D000D0CDB7DEB78C014983BF
:101B40005A836B837C835901C12CD12C7601412CA3
:101B500082E0582E612C712C49815A816B817C81E5
:101B60009E012F5F3F4FC8010E94DF03882351F180
:101B7000D301C201F801058404C0880F991FAA1F70
:101B8000BB1F0A94D2F7C80ED91EEA1EFB1E49815C
:101B90005A816B817C818789803129F088EF9FEFA2
:101BA000AFEFBFE004C088EF9FEFA0E0B0E04817C0
:101BB00059076A077B0780F2F501C082D182E28271
:101BC000F38281E00F900F900F900F90DF91CF91F3
:101BD0001F910F91FF90EF90DF90CF90BF90AF904B
:101BE0007F906F905F904F900895CF93DF93FC01AB
:101BF0002581222311F080E049C0EC018091460448
:101C00008031C1F482E08583178A108E118E128E86
:101C10008091470490914804A0E0B0E025E0880F4F
:101C2000991FAA1FBB1F2A95D1F7838B948BA58B75
:101C3000B68B19C08032F9F683E085834091490460
:101C400050914A0460914B0470914C04478B508F23
:101C5000618F728F9F012D5E3F4F8FE294E00E9453
:101C60008C0D882341F28FE294E09C8F8B8F81E072
:101C70008C831E821F82188619861A861B861C86F4
:101C80001D861E861F86188A198A1A8ADF91CF91AF
:101C900008958F929F92AF92BF92CF92DF92EF9270
:101CA000FF92CF93DF93C82F83E294E09093830356
:101CB00080938203CC2369F1C53010F080E00CC121
:101CC00040E060E070E0CB010E94F5028823B1F3B0
:101CD00020E1C29FC00111248E589E4FFC01E254A6
:101CE000FE4F20812F7751F73C96408151816281D0
:101CF0007381443651056105710500F33497C08046
:101D0000D180E280F380C114D104E104F10421F414
:101D1000D5CFC12CD12C760140E0C701B6010E947D
:101D2000F502882359F280918D0190918E018115E1
:101D3000924021F6A0919201AA2309F4BFCF6091AD
:101D40009001709191016115710509F4B7CF20914F
:101D50008F01222309F4B2CFA093410420933304CE
:101D600080E030E041E050E0C82FFA01082E02C0C8
:101D7000EE0FFF1F0A94E2F72E173F0739F08F5F2F
:101D8000C83091F789E080933C0498CF80933C045D
:101D900020919801309199012115310519F040E009
:101DA00050E008C02091A6013091A7014091A80100
:101DB0005091A901209334043093350440933604A4
:101DC0005093370446015701860E971EA11CB11C83
:101DD0008092420490924304A0924404B09245043D
:101DE000E0919301F0919401F0934804E09347044B
:101DF000B0E00E94E912860E971EA81EB91E8092BE
:101E0000490490924A04A0924B04B0924C0485E09D
:101E1000EE0FFF1F8A95E1F7E150FE4FEF2FFF27EE
:101E2000E6958E0E9F1EA11CB11C80923D049092DF
:101E30003E04A0923F04B09240042091950130915D
:101E400096012115310521F0A90160E070E008C07C
:101E50004091A2015091A3016091A4017091A5014C
:101E6000D701C60188199909AA09BB09840F951FD2
:101E7000A61FB71F04C0B695A79597958795CA95D5
:101E8000D2F78093380490933904A0933A04B09326
:101E90003B04853F2FE09207A105B10510F48CE0CB
:101EA00018C0853F9F4FA105B10510F480E111C016
:101EB0008091AE019091AF01A091B001B091B101BC
:101EC0008093490490934A04A0934B04B0934C042C
:101ED00080E28093460481E0DF91CF91FF90EF9004
:101EE000DF90CF90BF90AF909F908F90089590E03B
:101EF000FC01EC54FF4F2491FC01E056FF4F84910C
:101F0000882399F090E0880F991FFC01EA56FF4F53
:101F1000A591B491FC01E457FF4F859194918FB73F
:101F2000F894EC91E22BEC938FBF089590E0FC01C4
:101F3000E858FF4F2491FC01EC54FF4F3491FC0111
:101F4000E056FF4FE491EE2309F43CC0222339F11F
:101F5000233091F038F42130A9F0223001F584B516
:101F60008F7D12C0273091F02830A1F02430B9F4D1
:101F7000809180008F7D03C0809180008F77809357
:101F800080000DC084B58F7784BD09C08091B000FA
:101F90008F7703C08091B0008F7D8093B000F0E018
:101FA000EE0FFF1FE457FF4FA591B4919FB7F89430
:101FB000611104C08C913095382302C0EC913E2B06
:101FC0003C939FBF08952FB7F89460916D04709172
:101FD0006E0480916F04909170042FBF08951F923A
:101FE0000F920FB60F9211242F933F938F939F93CD
:101FF000AF93BF9380916D0490916E04A0916F0494
:10200000B091700430916C0423E0230F2D3720F43D
:102010000196A11DB11D05C026E8230F0296A11D42
:10202000B11D20936C0480936D0490936E04A09373
:102030006F04B09370048091710490917204A09128
:102040007304B09174040196A11DB11D80937104B5
:1020500090937204A0937304B0937404BF91AF91F2
:102060009F918F913F912F910F900FBE0F901F90D6
:10207000189561E085E00E94960F0E94691260E069
:1020800085E00E94960F0E946912F3CFCF93DF93F1
:10209000CDB7DEB7C257D1090FB6F894DEBF0FBE79
:1020A000CDBF789484B5826084BD84B5816084BDE1
:1020B00085B5826085BD85B5816085BD80916E00E6
:1020C000816080936E001092810080918100826017
:1020D0008093810080918100816080938100809154
:1020E00080008160809380008091B1008460809343
:1020F000B1008091B00081608093B00080917A003F
:10210000846080937A0080917A00826080937A0064
:1021100080917A00816080937A0080917A00806853
:1021200080937A001092C10085E00E94770F809121
:102130005204882321F08DE494E00E94080A109252
:102140002E0410922C0410922904109228048AE084
:10215000809327040E94E30F8B01809127040E9443
:10216000770F61E0809127040E94960FFFB6F894E4
:1021700080918101811124C0EAEAF0E08491EEEBC4
:10218000F0E09491E82FF0E0EE0FFF1FEA56FF4FCA
:10219000A591B491EC91E92321F461E08AE00E94D9
:1021A000960F8AE00E94770F8CB580618CBD8CB54C
:1021B00080648CBD8DE00E94770F8BE00E94770FCA
:1021C000809181018F5F80938101FFBE82E58093C2
:1021D00021041092220480912104909122040E94F3
:1021E00052012AE0F22E8FEF0E941301FA94F110AF
:1021F000FACF83E294E00E94550120E030E0A9018B
:1022000060E083E294E00E946B01F82E80932D043D
:1022100081E0F81649F00E94E30F601B710B613DED
:10222000774058F381E056C02AEA31E040E050E0C0
:1022300068E083E294E00E946B0182FF03C0F092A9
:102240002E0410C094E0F92E0E941A0180932D04F0
:10225000FA94F110F9CF8A3A11F082E03BC082E0A3
:1022600080932E0480912E04823021F0C12CD12C39
:10227000760105C0C12CD12CE12C80E4F82E20E0A1
:1022800030E0A90167E383E294E00E946B01A701BB
:10229000960169E283E294E00E946B0180932D0431
:1022A000882349F00E94E30F601B710B613D77406A
:1022B00030F388E00FC080912E04823001F520E0D9
:1022C00030E0A9016AE383E294E00E946B01882375
:1022D00041F086E08093280483E294E00E940801A4
:1022E00028C00E941A01807C803C19F483E080930E
:1022F0002E040E941A010E941A010E941A0183E210
:1023000094E00E94080180E5809321041092220449
:1023100081E00E94490E882339F08DE494E00E9408
:10232000F50D882331F007C080E00E94490E81112D
:10233000F4CF0E9439101C821B8204E411E01A833E
:1023400009831E82CE0101960E94F50DBE016F5FCA
:102350007F4FCE01CB960E94D80B19A218A21F8FD7
:102360000E8F1BA221968FAD219781111CC06C96F8
:102370001FAE1EAE6C9788EE93E0A0E0B0E0A09692
:102380008CAF9DAFAEAFBFAFA0978EE091E06A96E5
:102390009FAF8EAF6A97E3961FAE1EAEE397A596EA
:1023A0001FAEA59729C027E148E551E0BE01655C55
:1023B0007F4FCE014E960E944F088823C1F2CE0176
:1023C000CB960E94080A49A95AA96BA97CA9CE01FB
:1023D0004E960E946204BE01625E7F4FCE0101965E
:1023E0000E94D80B48E551E0BE016F5F7F4FCE01E0
:1023F000885A9F4F0E94570D65E070E080E090E0A2
:102400000E9461148C01009731F0FC01108261E69A
:1024100071E00E944215E396EEADFFADE397309771
:1024200009F487CF8581882309F483CF40E150E008
:1024300066E671E0CE01885A9F4F0E94BC0B42E0D5
:1024400050E067E771E0CE01885A9F4F0E94BC0BB5
:10245000E3968EAD9FADE397009761F00E94080A66
:10246000E3968EAD9FADE3970E94D813E3961FAE1F
:102470001EAEE39761E085E00E94960FC8010E94BE
:10248000D8130E949B00FDCF3FB7F8948091710450
:1024900090917204A0917304B091740426B5A89B26
:1024A00005C02F3F19F00196A11DB11D3FBFBA2FE6
:1024B000A92F982F8827820F911DA11DB11DBC0146
:1024C000CD0142E0660F771F881F991F4A95D1F70B
:1024D00008958F929F92AF92BF92CF92DF92EF9228
:1024E000FF920E9444124B015C0184EFC82EDD2450
:1024F000D394E12CF12C0E944412DC01CB01881909
:102500009909AA09BB09883E9340A105B10598F332
:1025100021E0C21AD108E108F10888EE880E83E0B4
:10252000981EA11CB11CC114D104E104F10419F7D7
:10253000FF90EF90DF90CF90BF90AF909F908F90E3
:102540000895E4E8F3E01382128288EE93E0A0E0BD
:10255000B0E084839583A683B78382E391E091837F
:10256000808385EC90E09587848784EC90E0978762
:10257000868780EC90E0918B808B81EC90E0938B50
:10258000828B82EC90E0958B848B86EC90E0978B2D
:10259000868B118E128E138E148EE1E2F4E080E5AC
:1025A00080831182E3E2F4E015821682118613869D
:1025B00082E090E0A0E0B0E084879587A687B787A7
:1025C00013A215A614A684E491E093A782A717A6E8
:1025D00008950E942B13A59F900DB49F900DA49F6A
:1025E000800D911D112408952F923F924F925F927A
:1025F0006F927F928F929F92AF92BF92CF92DF9213
:10260000EF92FF920F931F93CF93DF93CDB7DEB777
:10261000CA1BDB0B0FB6F894DEBF0FBECDBF09940B
:102620002A88398848885F846E847D848C849B8462
:10263000AA84B984C884DF80EE80FD800C811B8170
:10264000AA81B981CE0FD11D0FB6F894DEBF0FBE9F
:10265000CDBFED010895A29FB001B39FC001A39F1C
:10266000700D811D1124911DB29F700D811D1124CB
:10267000911D0895EE0FFF1F0590F491E02D099430
:102680000F931F93CF93DF938230910510F482E074
:1026900090E0E0917704F091780420E030E0A0E051
:1026A000B0E0309719F140815181028113814817C0
:1026B0005907C8F08417950769F4109731F01296FE
:1026C0000C93129713961C9327C0009377041093D2
:1026D000780422C02115310519F04217530718F468
:1026E0009A01BD01EF01DF01F801DBCF21153105B2
:1026F000F9F0281B390B2430310580F48A819B8145
:102700006115710521F0FB019383828304C09093CE
:10271000780480937704FE01329644C0FE01E20FF4
:10272000F31F8193919322503109398328833AC052
:102730002091750430917604232B41F420910601F9
:1027400030910701309376042093750420910401A1
:10275000309105012115310541F42DB73EB7409167
:10276000080150910901241B350BE0917504F0918B
:102770007604E217F307A0F42E1B3F0B2817390746
:1027800078F0AC014E5F5F4F2417350748F04E0FCD
:102790005F1F50937604409375048193919302C018
:1027A000E0E0F0E0CF01DF91CF911F910F9108950C
:1027B000CF93DF93009709F481C0FC013297138215
:1027C0001282A0917704B0917804109781F420814F
:1027D0003181820F931F2091750430917604281760
:1027E000390751F5F0937604E093750467C0ED0165
:1027F00020E030E0CE17DF0740F44A815B819E0184
:1028000041155105F1F0EA01F5CFD383C283408130
:102810005181840F951FC817D90759F48881998170
:10282000840F951F0296918380838A819B81938375
:1028300082832115310529F4F0937804E09377041D
:102840003DC0E901FB83EA8349915991C40FD51F2B
:10285000EC17FD0761F480819181840F951F02962A
:10286000E90199838883828193819B838A83E0E055
:10287000F0E012968D919C911397009719F0FD014D
:10288000DC01F7CF8D919C9111979D012E5F3F4FF9
:10289000820F931F20917504309176042817390711
:1028A00069F4309729F4109278041092770402C0EA
:1028B00013821282B0937604A0937504DF91CF91B6
:1028C0000895A0E0B0E0E7E6F4E10C94F812EC0122
:1028D000009721F4CB010E944013B4C0FC01E60F25
:1028E000F71F9C0122503109E217F30708F4A8C032
:1028F000D9010D911C91119706171707B0F00530FB
:10290000110508F49BC0C80104978617970708F4BF
:1029100095C002501109061B170B019311936D937B
:102920007C93CF010E94D81389C05B01A01AB10A21
:102930004C01800E911EA0917704B0917804612C17
:10294000712CE12CF12C109709F446C08D919C91CB
:102950001197A815B905B1F56C0142E0C40ED11C60
:10296000CA14DB0478F14C018A189B08640142E028
:10297000C40ED11C1296BC9012971396AC91B5E080
:10298000CB16D10440F0B282A38391828082D90118
:102990006D937C9309C00E5F1F4F800F911FF9014B
:1029A00091838083EB2DFA2FE114F10431F0D701EC
:1029B0001396FC93EE93129741C0F0937804E09342
:1029C00077043CC06816790608F43C017D01129634
:1029D0000D90BC91A02DB7CF809175049091760495
:1029E00088169906E1F466167706C8F4809104010A
:1029F00090910501009741F48DB79EB74091080171
:102A000050910901841B950BE817F907C8F4F0935E
:102A10007604E0937504F901718360830FC0CB01E4
:102A20000E9440137C01009759F0A801BE010E944A
:102A30003915CE010E94D813C70104C0CE0102C0CF
:102A400080E090E0CDB7DEB7EEE00C94141381E0A7
:102A500090E0F8940C945815FB01DC0104C08D91B2
:102A60000190801921F441505040C8F7881B990B00
:102A70000895FB01DC0102C001900D9241505040CD
:102A8000D8F70895FB01DC0101900D920020E1F7D9
:102A90000895FB01DC014150504048F001900D9237
:102AA0000020C9F701C01D9241505040E0F7089541
:042AB000F894FFCFC8
:102AB400FFFFFFFF00007904800000000000C60053
:102AC400BC0BDD00140AA500E506EF0600000000BB
:102AD400840C290CDD00DC00840C840C840C0000C4
:102AE4000000900C290C530CDD0C8F00620C760C4A
:102AF40000000000AB0B290CDD00DC00000000002E
:102B0400840C290CDD00DC00746573742E747874F5
:102B140000616263640074657374696E6720312CAC
:0A2B240020322C20332E000D0A0091
:00000001FF
