:100000000C9481010C94A9010C94A9010C94A901F0
:100010000C94A9010C94A9010C94A9010C94A901B8
:100020000C94A9010C94A9010C94A9010C94A901A8
:100030000C94A9010C94A9010C94A9010C94A90198
:100040000C947F050C94A9010C94A9010C94A901AE
:100050000C94A9010C94A9010C94A9010C94A90178
:100060000C94A9010C94A9010608205F000000006F
:1000700000000000002F000000000700070000142F
:100080007F147F1400242A7F2A120023130864623D
:1000900000364955225000000503000000001C22D4
:1000A0004100000041221C000014083E0814000812
:1000B000083E0808000000A06000000808080808C2
:1000C000000060600000002010080402003E51495A
:1000D000453E0000427F40000042615149460021F8
:1000E00041454B31001814127F1000274545453912
:1000F000003C4A494930000171090503003649496D
:10010000493600064949291E000036360000000025
:100110005636000000081422410000141414141470
:100120000000412214080002015109060032495919
:10013000513E007C1211127C007F49494936003E35
:1001400041414122007F4141221C007F49494941F0
:10015000007F09090901003E4149497A007F0808EA
:10016000087F0000417F4100002040413F01007FA7
:1001700008142241007F40404040007F020C027F73
:10018000007F0408107F003E4141413E007F090985
:100190000906003E4151215E007F091929460046AB
:1001A000494949310001017F0101003F4040403F82
:1001B000001F2040201F003F4038403F00631408CC
:1001C00014630007087008070061514945430000A7
:1001D0007F414100AA55AA55AA55000041417F0020
:1001E00000040201020400404040404000000305BA
:1001F0000000002054545478007F484444380038AC
:100200004444442000384444487F0038545454182F
:1002100000087E0901020018A4A4A47C007F080441
:1002200004780000447D4000004080847D00007F11
:10023000102844000000417F4000007C041804782E
:10024000007C0804047800384444443800FC24242A
:1002500024180018242418FC007C08040408004812
:100260005454542000043F444020003C4040207C33
:10027000001C2040201C003C4030403C0044281022
:100280002844001CA0A0A07C004464544C440000FE
:10029000107C8200000000FF00000000827C100043
:1002A00000000609090600000000240027002A00BB
:1002B00000000000250028002B00000000002300A3
:1002C00026002900040404040404040402020202B7
:1002D0000202030303030303010204081020408009
:1002E0000102040810200102040810200000000888
:1002F00000020100000304070000000000000000ED
:100300008F0711241FBECFEFD8E0DEBFCDBF25E0A1
:10031000AAE2B1E001C01D92AE33B207E1F711E0ED
:10032000A0E0B1E0E0E4FFE002C005900D92AA3247
:10033000B107D9F711E0C1E8D1E004C02197FE016F
:100340000E949807C038D107C9F70E94C9050C94CC
:100350009E070C94000080389105F0F4603471051C
:10036000D8F4FB0123E0F695E7952A95E1F7F69599
:10037000FE2FEE27F795E7958E0F9F1FFC01ED5C92
:10038000FE4F6770772781E090E001C0880F6A9583
:10039000EAF79385892B8387089580389105F8F4CF
:1003A00060347105E0F4FB0123E0F695E7952A95AA
:1003B000E1F7F695FE2FEE27F795E7958E0F9F1F35
:1003C000FC01ED5CFE4F6770772781E090E001C093
:1003D000880F6A95EAF78095938589238387089526
:1003E000833081F028F4813099F08230A1F00895B3
:1003F0008730A9F08830B9F08430D1F48091800042
:100400008F7D03C0809180008F7780938000089556
:1004100084B58F7702C084B58F7D84BD08958091A7
:10042000B0008F7703C08091B0008F7D8093B000C3
:100430000895CF93DF93282F30E0F901E451FD4F69
:100440008491F901E852FD4FD491F901EC53FD4F2D
:10045000C491CC2391F081110E94F001EC2FF0E0C7
:10046000EE0FFF1FE654FD4FA591B491EC91ED23E3
:1004700081E090E021F480E002C080E090E0DF9134
:10048000CF9108951F93CF93DF93282F30E0F90188
:10049000E451FD4F8491F901E852FD4FD491F901E7
:1004A000EC53FD4FC491CC23C1F0162F81110E9453
:1004B000F001EC2FF0E0EE0FFF1FE055FD4FA5918E
:1004C000B4919FB7F894111104C08C91D095D823A2
:1004D00002C0EC91DE2BDC939FBFDF91CF911F9187
:1004E0000895CF93DF9390E0FC01E852FD4F2491F3
:1004F000FC01EC53FD4F8491882361F190E0880F5B
:10050000991FFC01EA55FD4FC591D491FC01E055BE
:10051000FD4FA591B491611109C09FB7F8948881EE
:10052000209582238883EC912E230BC0623061F4E6
:100530009FB7F8948881322F309583238883EC917C
:100540002E2B2C939FBF06C08FB7F894E8812E2BDB
:1005500028838FBFDF91CF910895CF93DF93C3E3BB
:10056000D1E061E089810E94710260E089810E948E
:10057000420261E088810E94420261E089810E941A
:10058000420260E08981DF91CF910C94710260E0BA
:10059000809134010E94710261E0809133010E94D8
:1005A0004202809134010E9419020197D1F360E068
:1005B000809133010C9442023FB7F89480912F014F
:1005C00090913001A0913101B091320126B5A89BE4
:1005D00005C02F3F19F00196A11DB11D3FBFBA2FD5
:1005E000A92F982F8827820F911DA11DB11DBC0135
:1005F000CD0142E0660F771F881F991F4A95D1F7FA
:1006000008958F929F92AF92BF92CF92DF92EF9216
:10061000FF926B017C010E94DC024B015C01C11462
:10062000D104E104F104F1F00E94DC02DC01CB0111
:1006300088199909AA09BB09883E9340A105B1050B
:1006400070F321E0C21AD108E108F10888EE880EA3
:1006500083E0981EA11CB11CC114D104E104F10473
:1006600019F7DDCFFF90EF90DF90CF90BF90AF9064
:100670009F908F900895EF92FF920F931F93CF93C7
:10068000DF93E82EF62EC7E0D0E0042F10E0B8018B
:100690000C2E02C0759567950A94E2F761708E2D55
:1006A0000E94420261E08F2D0E94420260E08F2D85
:1006B0000E944202219758F7DF91CF911F910F912D
:1006C000FF90EF9008951F93CF93DF93182FC3E30C
:1006D000D1E061E089810E947102412F68818981A6
:1006E000DF91CF911F910C943B03CF93DF93C3E332
:1006F000D1E061E089810E94710261E089810E94FC
:10070000420261E088810E94420260E089810E9489
:10071000420260E088810E94420248E76881898144
:10072000DF91CF910C943B03CF93909136019923A5
:1007300041F194EE9093BC009091BC0097FFFCCFE8
:1007400098E79093BB0094EC9093BC009091BC0010
:1007500097FFFCCF1092BB0094EC9093BC0090915B
:10076000BC0097FFFCCF8093BB0084EC8093BC005F
:100770008091BC0087FFFCCF84E98093BC00CF91BF
:100780000895C82F0E9475030E94C70280E00E944E
:1007900063030E94C7028C2F0E9463030E94C7025A
:1007A000CF910C94AD021F93CF93DF93F89481E225
:1007B0000E94940380E00E9494038FE70E949403B8
:1007C00082E20E94940380E00E94940387E00E94EA
:1007D0009403809136018823E1F084EE8093BC007D
:1007E0008091BC0087FFFCCF88E78093BB0084EC3E
:1007F0008093BC008091BC0087FFFCCF80E4809395
:10080000BB0084EC8093BC008091BC0087FFFCCFD0
:1008100009C00E9475030E94C70280E40E9463031E
:100820000E94C702C3E3D1E014EC80913601882313
:1008300051F08B858093BB001093BC008091BC006D
:1008400087FFFCCF05C08B850E9463030E94C7020F
:10085000219685E0C333D80741F78091360188237C
:1008600021F084E98093BC0002C00E94AD0278941C
:10087000DF91CF911F9108952F923F924F925F92F7
:100880006F927F928F929F92AF92BF92CF92DF92A0
:10089000EF92FF920F931F93CF93DF9300D000D07E
:1008A00000D0CDB7DEB7FC0101900020E9F7319709
:1008B0009F01281B390B3C832B831C01E12CF12C5D
:1008C0008B819C81E816F9060CF000C190913901EA
:1008D0009E9D60019F9DD00C1124F10121911F016B
:1008E00080913A01582F577030E040913B015111EF
:1008F00079C0869586958695241B3109989FC001FD
:100900001124289FA001299F500D389F500D1124BC
:100910009A012C5F3F4F3A832983412C512CA12C03
:10092000B12C80913A0186958695869590E0A8161F
:10093000B9060CF0C7C069807A80DE82CD828091D2
:10094000390190E02D813E812C193D092817390786
:100950000CF041C082010D5F1F4F812C912C8091C2
:1009600039018A9DF0018B9DF00D1124E60DF71DD4
:100970008091370190913801E80FF91FE491F0E080
:10098000082C02C0F595E7950A94E2F780913D01A5
:10099000B801E0FF03C0811103C007C0811105C089
:1009A0008D819E810E94CD0104C08D819E810E9417
:1009B000AB013FEF831A930A0F5F1F4F88E0881641
:1009C000910469F6ED81FE813196FE83ED83FFEFA0
:1009D0006F1A7F0AB4CF2FEFA21AB20A38E0430E83
:1009E000511C9FCF241B3109989FC001112443E063
:1009F000959587954A95E1F7289F4001299F900C8E
:100A0000389F900C112484E0880E911CE0913701EE
:100A1000F0913801E80DF91DE4916E2E712CDA8207
:100A2000C98257E0A52EB12C8091390190E029812F
:100A30003A812C193D09281739070CF043C003E00F
:100A400010E080913A0190E0980123503109281775
:100A500039078CF520913D01C3010A2C02C0959500
:100A600087950A94E2F7B80180FF05C089819A81D1
:100A7000211105C007C089819A81211103C00E94FC
:100A8000CD0102C00E94AB0191E0A91AB108B7FEE6
:100A90000FC0EFEF8E1A9E0AE0913701F0913801F6
:100AA000E80DF91DE4916E2E712C87E0A82EB12C73
:100AB0000F5F1F4FC6CF29813A812F5F3F4F3A8387
:100AC0002983B2CF3FEFE31AF30AFACE26960FB688
:100AD000F894DEBF0FBECDBFDF91CF911F910F9174
:100AE000FF90EF90DF90CF90BF90AF909F908F904E
:100AF0007F906F905F904F903F902F9008951F923E
:100B00000F920FB60F9211242F933F938F939F93C1
:100B1000AF93BF9380912B0190912C01A0912D0157
:100B2000B0912E0130912A0123E0230F2D3720F4BC
:100B30000196A11DB11D05C026E8230F0296A11D37
:100B4000B11D20932A0180932B0190932C01A09337
:100B50002D01B0932E0180912F0190913001A09131
:100B60003101B09132010196A11DB11D80932F0179
:100B700090933001A0933101B0933201BF91AF91B6
:100B80009F918F913F912F910F900FBE0F901F90CB
:100B90001895789484B5826084BD84B5816084BDE5
:100BA00085B5826085BD85B5816085BD80916E000B
:100BB000816080936E00109281008091810082603C
:100BC0008093810080918100816080938100809179
:100BD00080008160809380008091B1008460809368
:100BE000B1008091B00081608093B00080917A0064
:100BF000846080937A0080917A00826080937A008A
:100C000080917A00816080937A0080917A00806878
:100C100080937A001092C10060E084E00E9471022B
:100C200060E082E00E94710260E081E10E94710256
:100C300060E089E00E94710260E086E00E9471023B
:100C400060E088E00E94710260E087E00E9471022B
:100C500061E084E00E94420261E082E00E94420280
:100C600061E081E10E94420261E089E00E9442026B
:100C700061E086E00E94420261E088E00E94420258
:100C800061E087E00E944202809135018F3FF1F0E0
:100C900061E00E94710261E0809135010E94420290
:100CA00061E070E080E090E00E94010360E08091EC
:100CB00035010E9442026AE070E080E090E00E940C
:100CC000010361E0809135010E944202809134016C
:100CD000823101F5809133018331E1F481E0809329
:100CE000360161E082E10E94420261E083E10E94FC
:100CF00042028091B9008E7F8093B9008091B90043
:100D00008D7F8093B9008CE08093B80085E080935C
:100D1000BC0007C01092360161E0809133010E944F
:100D200071028EEA0E94940385ED0E94940380E88C
:100D30000E94940388EA0E9494038FE30E94940324
:100D400083ED0E94940380E00E94940380E40E945B
:100D500094038DE80E94940384E10E94940380E24E
:100D60000E94940380E00E94940381EA0E9494030D
:100D700088EC0E9494038AED0E94940382E10E9411
:100D8000940381E80E9494038FEC0E94940389ED00
:100D90000E94940381EF0E9494038BED0E949403C0
:100DA00080E40E94940384EA0E94940386EA0E94ED
:100DB00094038FEA0E94940380E094E0EEE3F1E074
:100DC000DF019C011D9221503040E1F70E94D303C6
:100DD000E8E6F0E0F0933801E0933701E491E09326
:100DE0003901E9E6F0E0E491E0933A01EAE6F0E067
:100DF000E491E0933B01EBE6F0E0E491E0933C0109
:100E000010923D01CEE3D1E000E014E080E0E82E56
:100E100080E0F82EDE01F8011D923197E9F70E947B
:100E2000D30384E00E941902892B61F480E091E0F1
:100E30000E943C040E94D30368EE73E080E090E0DF
:100E40000E94010382E00E941902892B61F486E06E
:100E500091E00E943C040E94D30368EE73E080E0BE
:100E600090E00E94010381E10E941902892B61F444
:100E70008CE091E00E943C040E94D30368EE73E092
:100E800080E090E00E94010389E00E941902892B12
:100E900061F482E191E00E943C040E94D30368EE79
:100EA00073E080E090E00E94010386E00E94190256
:100EB000892B61F488E191E00E943C040E94D303F5
:100EC00068EE73E080E090E00E94010388E00E94F9
:100ED0001902892B61F48EE191E00E943C040E948A
:100EE000D30368EE73E080E090E00E94010387E0A6
:100EF0000E941902892B61F484E291E00E943C0473
:100F00000E94D30368EE73E080E090E00E9401034A
:100F1000E114F10409F47ECF0E9400007BCFE3E3EB
:100F2000F1E082E1818383E1808388E08283089518
:100F3000EE0FFF1F0590F491E02D0994F894FFCF78
:100F400042544E20410042544E20420042544E2012
:100F5000430042544E20550042544E204400425417
:0A0F60004E204C0042544E20520077
:00000001FF
