:100000000C942A010C9447010C9447010C9447016D
:100010000C9447010C9447010C9447010C94470140
:100020000C9447010C9447010C9447010C94470130
:100030000C9447010C9447010C9447010C94470120
:100040000C94A7030C9447010C9447010C944701AE
:100050000C9447010C9447010C9447010C94470100
:100060000C9447010C94470150415F4D415800509A
:10007000415F484947480050415F4C4F570050414D
:100080005F4D494E0031362062697473003820623A
:100090006974730044697361626C6564006E5246F2
:1000A00032344C30312B006E524632344C303100F9
:1000B0003235304B42505300324D42505300314D97
:1000C000425053001112131415160A0B0C0D0E0F8B
:1000D0000001020304055354415455530909203DBE
:1000E000203078253032782052585F44523D2578B0
:1000F0002054585F44533D2578204D41585F525459
:100100003D25782052585F505F4E4F3D2578205452
:10011000585F46554C4C3D25780D0A005041205003
:100120006F77657209203D2025530D0A007E007708
:10013000006F006800435243204C656E6774680985
:10014000203D2025530D0A0094008D0085004D6F41
:1001500064656C0909203D2025530D0A00A7009D08
:100160000044617461205261746509203D2025536B
:100170000D0A00BE00B800B00044594E50442F464E
:1001800045415455524500434F4E46494709005298
:10019000465F53455455500052465F434809004559
:1001A0004E5F52584144445200454E5F4141090060
:1001B00052585F50575F50302D360054585F4144BD
:1001C0004452090052585F414444525F50322D3529
:1001D0000052585F414444525F50302D31000000BE
:1001E00000080002010000030407000000000000F6
:1001F00000000D0A002530327800203078002553A9
:1002000009203D000D0A0020307825303278002585
:100210005309203D0000000000250028002B0000AD
:10022000000000240027002A00040404040404043D
:100230000402020202020203030303030301020495
:100240000810204080010204081020010204081058
:1002500020009A0611241FBECFEFD8E0DEBFCDBF2D
:1002600021E0A0E0B1E001C01D92AA32B207E1F79F
:1002700011E0CAE2D1E004C02197FE010E94A0096A
:10028000C932D107C9F70E94F1030C94A6090C9456
:10029000000090E0FC01E35CFD4F2491FC01E75D70
:1002A000FD4F8491882399F090E0880F991FFC01FD
:1002B000E15EFD4FA591B491FC01EB5EFD4F859190
:1002C00094918FB7F894EC91E22BEC938FBF089543
:1002D00090E0FC01E252FE4F2491FC01E35CFD4FF3
:1002E0003491FC01E75DFD4FE491EE2309F43CC03D
:1002F000222339F1233091F038F42130A9F0223053
:1003000001F584B58F7D12C0273091F02830A1F01F
:100310002430B9F4809180008F7D03C080918000EB
:100320008F77809380000DC084B58F7784BD09C01E
:100330008091B0008F7703C08091B0008F7D809353
:10034000B000F0E0EE0FFF1FEB5EFD4FA591B49102
:100350009FB7F894611104C08C913095382302C086
:10036000EC913E2B3C939FBF08959CB59F7D9CBD17
:100370009CB5937F9CBD9CB59C7F9CBD9DB59160B9
:100380009DBD682F80910E010E946801809120011F
:10039000909121018230910538F0880F991F880FC4
:1003A000991F05970197F1F7089581E00C94B50125
:1003B00080E00C94B5013FB7F894809108019091CA
:1003C0000901A0910A01B0910B0126B5A89B05C0B7
:1003D0002F3F19F00196A11DB11D3FBFBA2FA92FC4
:1003E000982F8827820F911DA11DB11DBC01CD0141
:1003F00042E0660F771F881F991F4A95D1F708952D
:100400008F929F92AF92BF92CF92DF92EF92FF9224
:100410006B017C010E94DB014B015C01C114D10422
:10042000E104F104F1F00E94DB01DC01CB01881949
:100430009909AA09BB09883E9340A105B10570F34B
:1004400021E0C21AD108E108F10888EE880E83E0A5
:10045000981EA11CB11CC114D104E104F10419F7C8
:10046000DDCFFF90EF90DF90CF90BF90AF909F9047
:100470008F9008958EBD00000DB407FEFDCF8EB5A0
:100480000895CF93C82F0E94D8018C2F8F710E949E
:100490003A028FEF0E943A02C82F0E94D5018C2F9A
:1004A000CF910895CF93DF93C82FD62F0E94D80104
:1004B0008C2F8F7180620E943A02C82F8D2F0E946C
:1004C0003A020E94D5018C2FDF91CF91089580E0F0
:1004D0000E94410281FD0BC0682F626080E00E9493
:1004E000520265E070E080E090E00C940002089514
:1004F0000F931F93CF938C0186E00E944102C82F77
:10050000C77D0230110531F4C0628BE990E0A0E0B4
:10051000B0E00DC00130110529F085E590E0A0E0C4
:10052000B0E005C0C86081E490E0A0E0B0E0809356
:100530001C0190931D01A0931E01B0931F016C2F0D
:1005400086E00E94520286E00E94410291E0C813B8
:1005500090E0892FCF911F910F910895EF92FF9214
:100560000F931F93CF93DF93182F7B01C42F0E940B
:10057000D801812F8F7180620E943A02D82F8701A3
:10058000CC2339F0F80181918F010E943A02C150C9
:10059000F7CF0E94D5018D2FDF91CF911F910F9141
:1005A000FF90EF900895FF920F931F93CF93DF93E7
:1005B000C62FD42F9F938F938FE092E09F938F93BA
:1005C0000E94B206DC0F0F900F900F900F9007E083
:1005D00012E0CD1791F0FF24F394FC0E8C2F0E94B3
:1005E00041021F928F931F930F930E94B2060F90A8
:1005F0000F900F900F90CF2DECCF84E092E09F935F
:100600008F930E94B2060F900F90DF91CF911F91B0
:100610000F91FF9008952F923F924F925F926F92A9
:100620007F928F929F92AF92BF92CF92DF92EF9282
:10063000FF920F931F93CF93DF931F92CDB7DEB737
:10064000962E342E4DB65EB69F938F938EEF91E02B
:100650009F938F930E94B206390C0F900F900F90CA
:100660000F908AEFC82E81E0D82E95EFA92E91E049
:10067000B92E931409F44AC06DB67EB620901A01C3
:10068000022D10E08DB79EB7801B910B0FB6F8942A
:100690009EBF0FBE8DBFEDB7FEB731967F01F1E073
:1006A000F90DF9830E94D801892D8F710E943A02B9
:1006B0004701222041F08FEF0E943A02F40181931A
:1006C0004F012A94F6CF0E94D501DF92CF920E946B
:1006D000B2060E0D1F1D0F900F90015011090E153F
:1006E0001F0568F0F80180811F928F93BF92AF922F
:1006F0000E94B2060F900F900F900F90EECF0FB6A2
:10070000F8947EBE0FBE6DBE9980B3CF82EF91E0AC
:100710009F938F930E94B2060F900F900FB6F8949C
:100720005EBE0FBE4DBE0F90DF91CF911F910F9116
:10073000FF90EF90DF90CF90BF90AF909F908F9001
:100740007F906F905F904F903F902F9008951F92F1
:100750000F920FB60F9211242F933F938F939F9375
:10076000AF93BF938091040190910501A091060180
:10077000B09107013091030123E0230F2D3720F4BE
:100780000196A11DB11D05C026E8230F0296A11DEB
:10079000B11D209303018093040190930501A09360
:1007A0000601B09307018091080190910901A09181
:1007B0000A01B0910B010196A11DB11D80930801A2
:1007C00090930901A0930A01B0930B01BF91AF91DF
:1007D0009F918F913F912F910F900FBE0F901F907F
:1007E0001895CF93DF93CDB7DEB728970FB6F8945F
:1007F000DEBF0FBECDBF789484B5826084BD84B562
:10080000816084BD85B5826085BD85B5816085BD0B
:1008100080916E00816080936E00109281008091C3
:10082000810082608093810080918100816080934B
:100830008100809180008160809380008091B10070
:1008400084608093B1008091B00081608093B0009B
:1008500080917A00846080937A0080917A0082602F
:1008600080937A0080917A00816080937A008091F1
:100870007A00806880937A001092C10080910C0108
:1008800090910D0120910E0130910F018217930775
:1008900011F00E94490180910E0190910F01209169
:1008A0000C0130910D012817390711F00E94490100
:1008B0001FB7F89480910001811124C0E3E3F2E0B6
:1008C0008491E7E4F2E09491E82FF0E0EE0FFF1F4F
:1008D000E15EFD4FA591B491EC91E92321F461E033
:1008E0008AE00E9468018AE00E9449018CB580611B
:1008F0008CBD8CB580648CBD8DE00E9449018BE07D
:100900000E944901809100018F5F809300011FBF09
:1009100080910C0190910D0120910E0130910F01F9
:100920008217930719F060E00E94680181E00E943D
:10093000B50165E070E080E090E00E9400026CE0AC
:1009400080E00E9452026FE584E00E94520282E041
:1009500090E00E947802882319F081E080931201D0
:1009600086E00E94410280E090E00E9478020E94AE
:10097000D80180E50E943A0283E70E943A020E9471
:10098000D50160E08DE10E94520260E08CE10E949E
:1009900052021092140160E787E00E9452026CE458
:1009A00085E00E9452020E94D80182EE0E943A0223
:1009B0000E94D5010E94D80181EE0E943A020E9455
:1009C000D5010E94670280E00E944102682F6E7F7D
:1009D00080E00E94520281EE898380EF8A838B83BC
:1009E00088EE8C838D831E821F821886EBECF0E0EC
:1009F000849140911A01BE016F5F7F4F0E94AE0249
:100A0000E5ECF0E08491609113010E94520282E0D3
:100A10000E944102E1EDF0E0E49161E070E001C08C
:100A2000660FEA95EAF7682B82E00E94520265E0C1
:100A300085E00E94520282E090E00E94780286E007
:100A40000E944102887F682F636086E00E94520204
:100A50000E94670280E00E944102682F616080E08E
:100A60000E94520260E787E00E94520280910C01CE
:100A700090910D0120910E0130910F018217930783
:100A800019F061E00E94680180911501882341F00E
:100A900040911A0165E171E08AE00E94AE0212C045
:100AA00082E00E944102E0EDF0E0E49121E030E0DC
:100AB00001C0220FEA95EAF72095622F682382E0B1
:100AC0000E9452028DE10E94410281FF07C00E94F4
:100AD000D80181EE0E943A020E94D5010E94D801FD
:100AE0008FEF0E943A02182F0E94D501812F90E0CB
:100AF000212F21701F922F939595879587709927A5
:100B00009F938F9314FB882780F91F928F9315FB77
:100B1000882780F91F928F9316FB882780F91F92F0
:100B20008F931F921F9386ED90E09F938F930E9467
:100B3000B20642E06AE081ED91E00E940B0344E0DE
:100B40006CE084EC91E00E94D30241E060E18BEB29
:100B500091E00E940B0346E061E180EB91E00E948E
:100B6000D30241E061E089EA91E00E94D30241E0D2
:100B700062E08FE991E00E94D30241E065E088E9FC
:100B800091E00E94D30241E066E08FE891E00E948C
:100B9000D30241E060E087E891E00E94D30242E0A6
:100BA0006CE189E791E00E94D30286E00E94410255
:100BB00088720FB6F894DEBF0FBECDBF803241F011
:100BC00021E090E0883009F020E0E22FF92F02C008
:100BD000E2E0F0E0EE0FFF1FED58FE4F859194919B
:100BE0009F938F9381E691E09F938F930E94B2062B
:100BF000E0911201F0E0EE0FFF1FE35AFE4F8591E6
:100C000094919F938F938EE491E09F938F930E9492
:100C1000B20680E00E944102182F81E00E9441024A
:100C20000FB6F894DEBF0FBECDBF13FD02C0882300
:100C300029F012FD06C0E1E0F0E005C0E0E0F0E0E0
:100C400002C0E2E0F0E0EE0FFF1FE85BFE4F85918F
:100C500094919F938F9385E391E09F938F930E944C
:100C6000B20686E00E9441028670E82FF0E0E35D64
:100C7000FE4F859194919F938F938CE191E09F9388
:100C80008F930E94B20685E00E9449010FB6F89446
:100C9000DEBF0FBECDBF90E0E92E90E0F92E80912F
:100CA000010190910201009791F08F36910521F496
:100CB00061E085E00E94680180910101909102014C
:100CC0008E3D910521F460E085E00E94680110915D
:100CD000130101E0111101C000E0809114018111A4
:100CE00002C0101B01C010E00E94D80181E60E94E2
:100CF0003A02002329F08FEF0E943A02809301010B
:100D0000112329F08FEF0E943A021150F9CF0E946F
:100D1000D50160E787E00E94520264E670E080E05F
:100D200090E00E940002E114F10409F4B8CF0E949F
:100D30000000B5CFECE0F1E01182108281E090E09C
:100D400093838283168280E28783108685E086877C
:100D500085E090E0A0E0B0E0848B958BA68BB78B0C
:100D600011860895A0E0B0E0E8EBF6E00C94770976
:100D7000AE01495F5F4FDA016D917D91AD0104E2F3
:100D800011E0F80182819381DC0113962C91139775
:100D9000286013962C930E94D806D8011296ED91E4
:100DA000FC9113972381277F2383E4E00C9493091C
:100DB000ABE0B0E0EEEDF6E00C9469096C017B016C
:100DC0008A01FC0117821682838181FFCCC1CE018A
:100DD00001963C01F6019381F70193FD859193FF04
:100DE00081917F01882309F4BAC1853239F493FDDA
:100DF000859193FF81917F01853229F4B60190E0BE
:100E00000E94CF08E7CF912C212C312CFFE1F31564
:100E1000D8F08B3279F038F4803279F08332A1F453
:100E2000232D20611DC08D3261F0803369F4232DA4
:100E3000216016C0832D8260382EE32DE4603E2EA3
:100E40002AC0F32DF8601DC037FC2DC020ED280FFF
:100E50002A3040F08E32B9F436FC81C1232D206453
:100E6000322E19C036FE06C08AE0989E200D11244D
:100E7000922E11C0EAE02E9E200D1124222EF32D79
:100E8000F0623F2E08C08C3621F4832D8068382E06
:100E900002C0883641F4F70193FD859193FF81915B
:100EA0007F018111B3CF982F9F7D9554933028F403
:100EB0000C5F1F4F9FE399830DC0833631F083375A
:100EC00071F0833509F059C021C0F8018081898310
:100ED0000E5F1F4F88248394912C530113C0280167
:100EE000F2E04F0E511CF801A080B18036FE03C025
:100EF000692D70E002C06FEF7FEFC5010E94C4084A
:100F00004C018201F32DFF773F2E16C0280122E00D
:100F1000420E511CF801A080B18036FE03C0692D3D
:100F200070E002C06FEF7FEFC5010E94B9084C016D
:100F3000F32DF0683F2E820133FC1BC0822D90E020
:100F400088169906B0F4B60180E290E00E94CF08BE
:100F50002A94F4CFF50137FC859137FE81915F012A
:100F6000B60190E00E94CF0821102A9421E0821A55
:100F700091088114910471F7E8C0843611F0893624
:100F800041F5F80137FE07C060817181828193814C
:100F90000C5F1F4F08C060817181072E000C880B09
:100FA000990B0E5F1F4FF32DFF763F2E97FF09C061
:100FB00090958095709561957F4F8F4F9F4FF0680A
:100FC0003F2E2AE030E0A3010E940B09882E8618EC
:100FD00045C0853731F4232D2F7EB22E2AE030E034
:100FE00025C0932D997FB92E8F36C1F018F488351E
:100FF00079F0B5C0803719F0883721F0B0C0E92FFB
:10100000E061BE2EB4FE0DC0FB2DF460BF2E09C002
:1010100034FE0AC0292F2660B22E06C028E030E038
:1010200005C020E130E002C020E132E0F801B7FE67
:1010300007C060817181828193810C5F1F4F06C060
:101040006081718180E090E00E5F1F4FA3010E94DC
:101050000B09882E8618FB2DFF773F2E36FE0DC01C
:10106000232D2E7FA22E891458F434FE0BC032FC9F
:1010700009C0832D8E7EA82E05C0B82CA32C03C0DA
:10108000B82C01C0B92CA4FE0FC0FE01E80DF11D63
:101090008081803321F49A2D997EA92E09C0A2FE69
:1010A00006C0B394B39404C08A2D867809F0B39433
:1010B000A3FC11C0A0FE06C0B21488F4280C922C28
:1010C0009B180EC0B21460F4B60180E290E00E945A
:1010D000CF08B394F7CFB21418F42B1802C0982C91
:1010E000212CA4FE10C0B60180E390E00E94CF083E
:1010F000A2FE17C0A1FC03C088E790E002C088E50B
:1011000090E0B6010CC08A2D867859F0A1FE02C08D
:101110008BE201C080E2A7FC8DE2B60190E00E9464
:10112000CF08891438F4B60180E390E00E94CF081C
:101130009A94F7CF8A94F301E80DF11D8081B601EE
:1011400090E00E94CF088110F5CF222009F442CE12
:10115000B60180E290E00E94CF082A94F6CFF60113
:101160008681978102C08FEF9FEF2B96E2E10C946E
:101170008509FC010590615070400110D8F78095F9
:1011800090958E0F9F1F0895FC0161507040019053
:101190000110D8F7809590958E0F9F1F08950F939B
:1011A0001F93CF93DF93FB01238121FD03C08FEFBA
:1011B0009FEF2CC022FF16C04681578124813581C4
:1011C0004217530744F4A081B1819D012F5F3F4F27
:1011D000318320838C93268137812F5F3F4F378364
:1011E000268314C08B01EC01FB010084F185E02D06
:1011F0000995892BE1F6D80116968D919C91179748
:10120000019617969C938E931697CE01DF91CF91FE
:101210001F910F910895FA01AA27283051F120312A
:1012200081F1E8946F936E7F6E5F7F4F8F4F9F4F7A
:10123000AF4FB1E03ED0B4E03CD0670F781F891FBC
:101240009A1FA11D680F791F8A1F911DA11D6A0F8A
:10125000711D811D911DA11D20D009F468943F913D
:101260002AE0269F11243019305D3193DEF6CF013C
:101270000895462F4770405D4193B3E00FD0C9F702
:10128000F6CF462F4F70405D4A3318F0495D31FD6F
:101290004052419302D0A9F7EACFB4E0A6959795C2
:1012A000879577956795BA95C9F700976105710598
:1012B00008959B01AC010A2E0694579547953795E2
:1012C0002795BA95C9F7620F731F841F951FA01D3C
:1012D00008952F923F924F925F926F927F928F92DA
:1012E0009F92AF92BF92CF92DF92EF92FF920F93B5
:1012F0001F93CF93DF93CDB7DEB7CA1BDB0B0FB6BF
:10130000F894DEBF0FBECDBF09942A88398848887B
:101310005F846E847D848C849B84AA84B984C88411
:10132000DF80EE80FD800C811B81AA81B981CE0F08
:10133000D11D0FB6F894DEBF0FBECDBFED010895ED
:10134000EE0FFF1F0590F491E02D0994F894FFCF64
:00000001FF
